:020000040800F2
:1000000000500020AD0F0008A90E0008AF0E000838
:10001000B50E0008BB0E0008C10E0008000000006D
:10002000000000000000000000000000C70E0008F3
:10003000D30E000800000000DF0E0008EB0E0008E1
:10004000F50F0008F50F0008F50F0008F50F000880
:10005000F50F0008F50F0008F50F0008F50F000870
:10006000F50F0008F50F0008F50F0008F50F000860
:10007000F50F0008F50F0008F50F0008F50F000850
:10008000F50F0008F50F0008F50F0008F50F000840
:10009000F50F0008F50F0008F50F0008F50F000830
:1000A000F50F0008F50F0008F50F0008F50F000820
:1000B000F90E00080D0F0008F50F0008F50F0008F5
:1000C000F50F0008F50F0008F50F0008F50F000800
:1000D000F50F0008F50F0008F50F0008F50F0008F0
:1000E000F50F0008F50F0008F50F000800000000EC
:1000F0000000000000000000000000000000000000
:0C01000000000000000000005FF808F1A3
:10010C0010B5054C237833B9044B13B10448AFF345
:10011C0000800123237010BD4C0000200000000063
:10012C00542D000808B5034B1BB103490348AFF32A
:10013C00008008BD0000000050000020542D000875
:10014C0080B500AF184B1B68022B27D1174B1B68CF
:10015C00082B09D0082B0CDC062B02D0072B06D061
:10016C0007E000F015FD05E000F026FD02E000F0D0
:10017C0037FD00BF0E4B1B680B2B09D00B2B0FDC74
:10018C00092B02D00A2B06D00AE000F051FD08E042
:10019C0000F05EFD05E000F06BFD02E000BF00E04A
:1001AC0000BF00BF80BD00BFD0000020B400002005
:1001BC00AC00002080B582B000AF284B1B68013B1F
:1001CC00042B3FD801A252F823F000BFED01000828
:1001DC00F9010008250200080F0200083B02000884
:1001EC0000F09EFE1D4B02221A6032E000F02EFB46
:1001FC000346002B28D0194B04221A6000F08EFD08
:10020C0022E000F023FB0346002B1FD0134B0322EC
:10021C001A6000F083FD19E000F018FB0346002B78
:10022C0016D00E4B02221A6000F078FD10E00C4B39
:10023C001B680C4A13600C4B1B680C4A13600023A0
:10024C007B6006E000BF04E000BF02E000BF00E0FE
:10025C0000BF00BF0837BD4680BD00BFD0000020E6
:10026C0078000020840000207C0000208800002002
:10027C0080B500AF00F0BAFE00F028F800210F485E
:10028C0001F0D2FE0E4801F025FE00F023F900F03B
:10029C005FF800F0A9F800F0E1FA4FF47A7200214F
:1002AC00084800F0F1FA4FF47A720021064800F089
:1002BC00EBFAFFF77FFF00F0C5FBFAE7F403002031
:1002CC003C0400204D0100081506000880B590B0D4
:1002DC0000AF07F1180328220021184602F02CFD6C
:1002EC003B1D00221A605A609A60DA601A61022380
:1002FC00BB610123BB621023FB6202237B630023DF
:10030C00BB634FF46013FB6307F11803184601F04D
:10031C00A9F90346002B01D000F070F90F237B6084
:10032C000223BB600023FB604FF480633B6100231E
:10033C007B613B1D0221184601F014FC0346002B87
:10034C0001D000F05BF900BF4037BD4680BD000016
:10035C0080B586B000AF07F1080300221A605A601E
:10036C009A60DA603B4600221A605A601D4B4FF0CF
:10037C0080421A601B4B4FF6FF125A60194B002239
:10038C009A60184B0A22DA60164B00221A61154B40
:10039C0080229A61134801F04DFD0346002B01D0D9
:1003AC0000F02CF94FF48053BB6007F10803194699
:1003BC000C4802F0A1F80346002B01D000F01EF906
:1003CC0000233B6000237B603B461946054802F046
:1003DC001FFC0346002B01D000F010F900BF1837AA
:1003EC00BD4680BD3C04002080B58EB000AF07F147
:1003FC00280300221A605A609A60DA6007F1200321
:10040C0000221A605A603B1D00221A605A609A60E2
:10041C00DA601A615A619A612C4B2D4A1A602B4B87
:10042C003F225A60294B00229A60284B40F2E73257
:10043C00DA60264B00221A61244B80229A612348F1
:10044C0001F0F8FC0346002B01D000F0D7F84FF474
:10045C008053BB6207F1280319461C4802F04CF884
:10046C000346002B01D000F0C9F8184801F084FDB8
:10047C000346002B01D000F0C1F800233B6200239F
:10048C007B6207F120031946104802F0C1FB0346BA
:10049C00002B01D000F0B2F860237B600023BB601E
:1004AC000023FB6000237B613B1D0022194607489B
:1004BC0001F064FF0346002B01D000F09FF80348C5
:1004CC0000F0BAFC00BF3837BD4680BDF4030020F5
:1004DC000004004080B586B000AF07F1080300228D
:1004EC001A605A609A60DA603B4B9B693A4A43F057
:1004FC0004039361384B9B6903F004037B607B68B6
:10050C00354B9B69344A43F008039361324B9B692A
:10051C0003F008033B603B68002240F201412F4886
:10052C0001F06FF800224FF487612D4801F069F853
:10053C0040F20143BB600123FB6000233B610223BB
:10054C007B6107F108031946244800F0BFFE4FF405
:10055C008973BB600023FB6000233B6107F1080338
:10056C0019461E4800F0B2FE0423BB600223FB6058
:10057C0003237B6107F108031946184800F0A6FE17
:10058C000823BB600023FB6000233B6107F10803D9
:10059C001946124800F09AFE0123BB600023FB6051
:1005AC0000233B6107F1080319460D4800F08EFE4D
:1005BC004FF48763BB600123FB6000233B61022384
:1005CC007B6107F108031946054800F07FFE00BF68
:1005DC001837BD4680BD00BF001002400008014026
:1005EC00000C014080B582B000AF786000F00EFACC
:1005FC0000F036F800BF0837BD4680BD80B400AFB0
:10060C0072B600BFFEE7000080B582B000AF114BA0
:10061C001B68052B1AD100F05DFB0F4B1B68013BCF
:10062C000D4A13600C4B1B68052B06D14FF47A72E4
:10063C0000210A4800F028F97860074B1B68002B52
:10064C0004D100F035FB786800F058FA00BF083789
:10065C00BD4680BDD0000020840000203D0D000868
:10066C0080B582B000AF00237B60B6E05F4A7B6848
:10067C0052F823205E497B6841F823205D4A7B6851
:10068C0052F8232059497B6841F823207B68032BBF
:10069C0036D801A252F823F0B5060008CB060008A4
:1006AC00E1060008F70600080221534800F092FF0B
:1006BC00034619464F4A7B6842F8231021E010216B
:1006CC004D4800F087FF034619464A4A7B6842F8BA
:1006DC00231016E00121494800F07CFF034619461F
:1006EC00444A7B6842F823100BE00121424800F099
:1006FC0071FF034619463F4A7B6842F8231000E01D
:10070C0000BF3A4A7B6852F823203A497B6851F87B
:10071C0023309A425ED1354A7B6852F82320344903
:10072C007B6851F823309A4254D1354A7B6852F891
:10073C0023202F497B6851F823309A4231D02C4A20
:10074C007B6852F823202E497B6841F823202C4AE1
:10075C007B6852F82330002B17D12A4A7B68012181
:10076C0042F82310284A7B6852F82330012B05D11C
:10077C00264A7B68642142F823102BE0234A7B68CD
:10078C004FF4967142F8231024E01F4A7B68002135
:10079C0042F823101D4A7B684FF4967142F82310DF
:1007AC0018E01A4A7B6852F823305A1E17497B68A6
:1007BC0041F82320154A7B6852F82330002B09DCC2
:1007CC000F4A7B68012142F823100F4A7B680121F4
:1007DC0042F823107B6801337B607B68032B7FF727
:1007EC0045AF00BF00BF0837BD4680BD20000020CC
:1007FC00300000201000002000080140000C0140D7
:10080C0000000020680000209C000020C000002098
:10081C0080B483B000AF78607B68032B01DD0023CC
:10082C000DE0094A7B6852F82330012B06D1064AA9
:10083C007B68002142F82310012300E000231846B6
:10084C000C37BD4680BC70476800002080B500AFF7
:10085C000020FFF7DDFF0346184680BD80B582B04F
:10086C0000AF0023FB7106E0FB79184600F046F957
:10087C00FB790133FB71FB79272BF5D900BF00BF46
:10088C000837BD4680BD0000B0B487B000AFF8603B
:10089C00B9607A60BB68002B04D17B68002B01D156
:1008AC000023AAE0BB68574AA2FB0323DB08BB600A
:1008BC007B68544AA2FB0323DB087B600023FB7597
:1008CC000EE0FA7D504913469B0013449B000B44E9
:1008DC0004331B68BA68D31ABB60FB7D0133FB750C
:1008EC00FA7D494913469B0013449B000B441B683B
:1008FC00002B0ED0FB7D272B0BD8FA7D42491346DB
:10090C009B0013449B000B4404331B68BA689A4247
:10091C00D7D8FB7D282B01D100236EE02723BB7594
:10092C0017E0BB7D5A1EB97D37480B469B000B4424
:10093C009B001844344913469B0013449B000B4402
:10094C0004461D460FCD0FC42B682360BB7D013BB5
:10095C00BB75BA7DFB7D9A42E3D8BA7D2A49134612
:10096C009B0013449B000B44FA681A60BA7D26491D
:10097C0013469B0013449B000B440433BA681A6063
:10098C00BA7D214913469B0013449B000B440C3346
:10099C0000221A70BA7D1C4913469B0013449B001D
:1009AC000B4408337A681A60BA7DF97D16481346F1
:1009BC009B0013449B00034410331960BB7D5A1CED
:1009CC00114913469B0013449B000B4404331968D4
:1009DC00BB7D5A1CBB68C91A0B4813469B001344B9
:1009EC009B00034404331960FA7D074913469B00AE
:1009FC0013449B000B4410331B6818461C37BD4630
:100A0C00B0BC7047CDCCCCCCD400002080B400AFAF
:100A1C000B4B1B68002B0FD0094B5B68002B06D1CE
:100A2C00074B1B7B0133DAB2054B1A7304E0044B02
:100A3C005B68013B024A536000BFBD4680BC7047F7
:100A4C00D4000020B0B588B000AF0023FB614AE0B1
:100A5C002949FA6913469B0013449B000B440C3341
:100A6C001B78002B3CD02449FA6913469B00134495
:100A7C009B000B441B6898471F49FA6913469B005F
:100A8C0013449B000B440C331B78013BD8B21A491E
:100A9C00FA6913469B0013449B000B440C3302462B
:100AAC001A701549FA6913469B0013449B000B44BA
:100ABC003C1D1D460FCD0FC42B682360F86900F058
:100ACC001DF8FB68002B0BD0FA6813469B001344EF
:100ADC005B00BB617B68BA69B9691846FFF7D4FE45
:100AEC00FB690133FB61FB69272BB1D900BF00BF48
:100AFC002037BD46B0BD00BFD4000020B0B485B0D7
:100B0C0000AF786021497A6813469B0013449B0020
:100B1C000B441B68002B01D1002332E00023FB7334
:100B2C0017E0FB7B5A1CF97B18480B469B000B44C7
:100B3C009B001844154913469B0013449B000B441F
:100B4C0004461D460FCD0FC42B682360FB7B01337D
:100B5C00FB73FB7B262BE4D90C4B0022C3F80C2334
:100B6C000A4B0022C3F81023084B002283F81823E9
:100B7C00064B0022C3F81423044B0022C3F81C2399
:100B8C00012318461437BD46B0BC7047D400002072
:100B9C0080B500AF01224FF48061054800F031FDB3
:100BAC0000220821034800F02CFD00BF80BD00BFCF
:100BBC0000080140000C014080B500AF01224FF449
:100BCC008061054800F01DFD01220821034800F05A
:100BDC0018FD00BF80BD00BF00080140000C0140A3
:100BEC0080B500AF00224FF48061054800F009FD8C
:100BFC0001220821034800F004FD00BF80BD00BFA6
:100C0C0000080140000C014080B500AF00224FF4F9
:100C1C008061054800F0F5FC00220821034800F033
:100C2C00F0FC00BF80BD00BF00080140000C01407B
:100C3C0080B500AF01222021044800F0E2FC002224
:100C4C001021024800F0DDFC00BF80BD000C01400B
:100C5C0080B500AF01222021044800F0D2FC012213
:100C6C001021024800F0CDFC00BF80BD000C0140FB
:100C7C0080B500AF00222021044800F0C2FC012204
:100C8C001021024800F0BDFC00BF80BD000C0140EB
:100C9C0080B500AF00222021044800F0B2FC0022F5
:100CAC001021024800F0ADFC00BF80BD000C0140DB
:100CBC0080B500AF01224FF48061054800F0A1FC23
:100CCC0000224FF48071024800F09BFC00BF80BDF5
:100CDC00000C014080B500AF00224FF48061054844
:100CEC0000F08FFC01224FF48071024800F089FC67
:100CFC0000BF80BD000C014080B500AF00224FF456
:100D0C008061054800F07DFC00224FF480710248A0
:100D1C0000F077FC00BF80BD000C014080B500AF37
:100D2C00FFF772FFFFF7B4FFFFF7E6FF00BF80BDD0
:100D3C0080B500AF00224FF48061054800F061FCE3
:100D4C004FF48071024800F074FC00BF80BD00BFFE
:100D5C00000C014080B485B000AF154B9B69144A60
:100D6C0043F001039361124B9B6903F00103BB60D9
:100D7C00BB680F4BDB690E4A43F08053D3610C4BBD
:100D8C00DB6903F080537B607B680A4B5B68FB601C
:100D9C00FB6823F0E063FB60FB6843F00073FB60CF
:100DAC00044AFB68536000BF1437BD4680BC7047D3
:100DBC00001002400000014080B584B000AF7860A4
:100DCC007B681B68B3F1804F14D1194BDB69184A4F
:100DDC0043F00103D361164BDB6903F00103FB60A5
:100DEC00FB68002200211C2000F039FA1C2000F0C6
:100DFC0052FA18E07B681B680E4A934213D10C4BD5
:100E0C00DB690B4A43F00203D361094BDB6903F046
:100E1C000203BB60BB68002200211D2000F01FFAFA
:100E2C001D2000F038FA00BF1037BD4680BD00BF52
:100E3C00001002400004004080B588B000AF78601C
:100E4C0007F1100300221A605A609A60DA607B681E
:100E5C001B680F4A934217D10E4B9B690D4A43F006
:100E6C00040393610B4B9B6903F00403FB60FB6869
:100E7C0040233B6102237B610223FB6107F11003DA
:100E8C001946054800F022FA00BF2037BD4680BD48
:100E9C0000040040001002400008014080B400AF84
:100EAC00FEE780B400AFFEE780B400AFFEE780B48D
:100EBC0000AFFEE780B400AFFEE780B400AF00BF28
:100ECC00BD4680BC704780B400AF00BFBD4680BC3F
:100EDC00704780B400AF00BFBD4680BC704780B582
:100EEC0000AF00F0C9F800BF80BD000080B500AFB6
:100EFC00024801F03BF900BF80BD00BF3C0400205C
:100F0C0080B500AF024801F031F900BF80BD00BFD1
:100F1C00F403002080B400AF00BFBD4680BC704716
:100F2C0080B500AFFFF7FAFE114B06221A60114B89
:100F3C000A221A60104B1B68104A13600F4B1B6877
:100F4C000F4A13600F4B1B680F4A13600E4B1B6844
:100F5C000E4A13600E4B1B680E4A13600D4B1B6838
:100F6C000D4A13600D4B00221A6000BF80BD00BFFC
:100F7C00B4000020AC00002078000020900000207D
:100F8C00840000207C0000209400002088000020B9
:100F9C0080000020980000208C000020B800002069
:100FAC000C480D490D4A002302E0D458C4500433B8
:100FBC00C4188C42F9D30A4A0A4C002301E013608E
:100FCC000432A242FBD3FFF7A5FF01F091FEFFF71D
:100FDC004FF97047000000204C000020942D0008B1
:100FEC004C00002088040020FEE7000080B500AF14
:100FFC00084B1B68074A43F010031360032000F0F2
:10100C0023F90F2000F008F8FFF7A4FE0023184680
:10101C0080BD00BF0020024080B582B000AF786078
:10102C00124B1A68124B1B7819464FF47A73B3FBA8
:10103C00F1F3B2FBF3F3184600F03BF90346002B37
:10104C0001D001230EE07B680F2B0AD800227968AF
:10105C004FF0FF3000F003F9064A7B681360002361
:10106C0000E0012318460837BD4680BD4000002033
:10107C00480000204400002080B400AF054B1B78D2
:10108C001A46054B1B681344034A136000BFBD4648
:10109C0080BC7047480000208404002080B400AF5E
:1010AC00024B1B681846BD4680BC70478404002068
:1010BC0080B485B000AF78607B6803F00703FB60F9
:1010CC000C4BDB68BB60BA684FF6FF031340BB6088
:1010DC00FB681A02BB68134343F0BF6343F400334D
:1010EC00BB60044ABB68D36000BF1437BD4680BCEC
:1010FC00704700BF00ED00E080B400AF044BDB682C
:10110C001B0A03F007031846BD4680BC704700BF9E
:10111C0000ED00E080B483B000AF0346FB7197F99B
:10112C000730002B0BDBFB7903F01F02064997F904
:10113C0007305B09012000FA02F241F8232000BFBE
:10114C000C37BD4680BC704700E100E080B483B032
:10115C0000AF03463960FB7197F90730002B0ADBAF
:10116C003B68DAB20C4997F907301201D2B20B4442
:10117C0083F800230AE03B68DAB20849FB7903F0F4
:10118C000F03043B1201D2B20B441A7600BF0C378A
:10119C00BD4680BC704700BF00E100E000ED00E000
:1011AC0080B489B000AFF860B9607A60FB6803F076
:1011BC000703FB61FB69C3F10703042B28BF04235E
:1011CC00BB61FB690433062B02D9FB69033B00E0CE
:1011DC0000237B614FF0FF32BB6902FA03F3DA4361
:1011EC00BB681A407B699A404FF0FF317B6901FA6A
:1011FC0003F3D9437B680B40134318462437BD4691
:10120C0080BC704780B582B000AF78607B68013BD2
:10121C00B3F1807F01D301230FE00A4A7B68013BC5
:10122C0053600F214FF0FF30FFF790FF054B00226A
:10123C009A60044B07221A60002318460837BD46F3
:10124C0080BD00BF10E000E080B582B000AF7860D8
:10125C007868FFF72DFF00BF0837BD4680BD80B50D
:10126C0086B000AF0346B9607A60FB7300237B61E4
:10127C00FFF742FF78617A68B9687869FFF790FFE9
:10128C00024697F90F3011461846FFF75FFF00BF73
:10129C001837BD4680BD80B582B000AF0346FB71E8
:1012AC0097F907301846FFF735FF00BF0837BD46E2
:1012BC0080BD80B582B000AF78607868FFF7A2FF80
:1012CC00034618460837BD4680BD000080B48BB07D
:1012DC0000AF7860396000237B6200233B6269E1D8
:1012EC0001227B6A02FA03F3FB613B681B68FA6913
:1012FC001340BB61BA69FB699A4240F058813B6864
:10130C005B689A4A93425ED0984A934275D8984A41
:10131C00934258D0964A93426FD8964A934252D0F1
:10132C00944A934269D8944A93424CD0924A93423D
:10133C0063D8924A934246D0904A93425DD8122B7E
:10134C002AD8122B59D801A252F823F0D313000833
:10135C00AD130008BF13000801140008071400089F
:10136C0007140008071400080714000807140008E5
:10137C0007140008071400080714000807140008D5
:10138C0007140008071400080714000807140008C5
:10139C00B5130008C9130008794A934213D02CE006
:1013AC003B68DB683B6229E03B68DB6804333B62EB
:1013BC0024E03B68DB6808333B621FE03B68DB687A
:1013CC000C333B621AE03B689B68002B02D1042370
:1013DC003B6213E03B689B68012B05D108233B6201
:1013EC007B68FA691A6109E008233B627B68FA6939
:1013FC005A6103E000233B6200E000BFBB69FF2B96
:10140C0001D87B6801E07B6804337B61BB69FF2BEF
:10141C0002D87B6A9B0002E07B6A083B9B003B6125
:10142C007B691A680F213B6901FA03F3DB431A400D
:10143C00396A3B6901FA03F31A437B691A603B680A
:10144C005B6803F08053002B00F0B1804D4B9B691F
:10145C004C4A43F0010393614A4B9B6903F001032F
:10146C00BB60BB68484A7B6A9B08023352F8233046
:10147C00FB607B6A03F003039B000F2202FA03F369
:10148C00DB43FA681340FB607B68404A934213D0FD
:10149C007B683F4A93420DD07B683E4A934207D00B
:1014AC007B683D4A934201D1032306E0042304E008
:1014BC00022302E0012300E000237A6A02F0030217
:1014CC0092009340FA681343FB602F497B6A9B0898
:1014DC000233FA6841F823203B685B6803F48033DD
:1014EC00002B06D02D4B1A682C49BB6913430B609B
:1014FC0006E02A4B1A68BB69DB43284913400B6092
:10150C003B685B6803F40033002B06D0234B5A680E
:10151C002249BB6913434B6006E0204B5A68BB69F8
:10152C00DB431E4913404B603B685B6803F480133C
:10153C00002B06D0194B9A681849BB6913438B6072
:10154C0006E0164B9A68BB69DB43144913408B6069
:10155C003B685B6803F40013002B21D00F4BDA6857
:10156C000E49BB691343CB6021E000BF0000321071
:10157C000000311000002210000021100000121099
:10158C000000111000100240000001400008014052
:10159C00000C014000100140001401400004014007
:1015AC000B4BDA68BB69DB4309491340CB607B6AA0
:1015BC0001337B623B681A687B6A22FA03F3002BC7
:1015CC007FF48EAE00BF00BF2C37BD4680BC704789
:1015DC000004014080B485B000AF78600B467B807E
:1015EC007B689A687B881340002B02D00123FB7325
:1015FC0001E00023FB73FB7B18461437BD4680BC0F
:10160C00704780B483B000AF78600B467B80134684
:10161C007B707B78002B03D07A887B681A6103E09F
:10162C007B881A047B681A6100BF0C37BD4680BCEE
:10163C00704780B485B000AF78600B467B807B68C8
:10164C00DB68FB607A88FB6813401A04FB68D9439B
:10165C007B880B401A437B681A6100BF1437BD4668
:10166C0080BC704780B586B000AF78607B68002B7B
:10167C0001D101236CE27B681B6803F00103002B92
:10168C0000F08780924B5B6803F00C03042B0CD0AA
:10169C008F4B5B6803F00C03082B12D18C4B5B68EF
:1016AC0003F48033B3F5803F0BD1894B1B6803F4F3
:1016BC000033002B6CD07B685B68002B68D1012356
:1016CC0046E27B685B68B3F5803F06D1804B1B68B4
:1016DC007F4A43F4803313602EE07B685B68002BF9
:1016EC000CD17B4B1B687A4A23F480331360784B04
:1016FC001B68774A23F4802313601DE07B685B68CA
:10170C00B3F5A02F0CD1724B1B68714A43F48023A4
:10171C0013606F4B1B686E4A43F4803313600BE00D
:10172C006B4B1B686A4A23F480331360684B1B684D
:10173C00674A23F4802313607B685B68002B13D00B
:10174C00FFF7ACFC386108E0FFF7A8FC02463B69E8
:10175C00D31A642B01D90323FAE15D4B1B6803F404
:10176C000033002BF0D014E0FFF798FC386108E050
:10177C00FFF794FC02463B69D31A642B01D903236F
:10178C00E6E1534B1B6803F40033002BF0D100E06F
:10179C0000BF7B681B6803F00203002B63D04C4B2B
:1017AC005B6803F00C03002B0BD0494B5B6803F018
:1017BC000C03082B1CD1464B5B6803F48033002BC5
:1017CC0016D1434B1B6803F00203002B05D07B683A
:1017DC001B69012B01D00123BAE13D4B1B6823F09F
:1017EC00F8027B685B69DB00394913430B603AE014
:1017FC007B681B69002B20D0364B01221A60FFF747
:10180C004DFC386108E0FFF749FC02463B69D31AEE
:10181C00022B01D903239BE12D4B1B6803F0020320
:10182C00002BF0D02A4B1B6823F0F8027B685B6915
:10183C00DB00274913430B6015E0264B00221A608E
:10184C00FFF72CFC386108E0FFF728FC02463B69E7
:10185C00D31A022B01D903237AE11D4B1B6803F029
:10186C000203002BF0D17B681B6803F00803002BEC
:10187C003AD07B689B69002B19D0174B01221A6058
:10188C00FFF70CFC386108E0FFF708FC02463B69E7
:10189C00D31A022B01D903235AE10D4B5B6A03F0D7
:1018AC000203002BF0D0012000F0A6FA1CE00A4B3A
:1018BC0000221A60FFF7F2FB38610FE0FFF7EEFB36
:1018CC0002463B69D31A022B08D9032340E100BF1F
:1018DC000010024000004242800442429E4B5B6A70
:1018EC0003F00203002BE9D17B681B6803F00403AF
:1018FC00002B00F0A6800023FB75974BDB6903F0EF
:10190C008053002B0DD1944BDB69934A43F08053E9
:10191C00D361914BDB6903F08053BB60BB6801233F
:10192C00FB758E4B1B6803F48073002B18D18B4B0B
:10193C001B688A4A43F480731360FFF7AFFB38616E
:10194C0008E0FFF7ABFB02463B69D31A642B01D9C5
:10195C000323FDE0814B1B6803F48073002BF0D054
:10196C007B68DB68012B06D17B4B1B6A7A4A43F000
:10197C00010313622DE07B68DB68002B0CD1764BE6
:10198C001B6A754A23F001031362734B1B6A724A7C
:10199C0023F0040313621CE07B68DB68052B0CD17D
:1019AC006D4B1B6A6C4A43F0040313626A4B1B6A4F
:1019BC00694A43F0010313620BE0674B1B6A664AEA
:1019CC0023F001031362644B1B6A634A23F0040384
:1019DC0013627B68DB68002B15D0FFF75FFB386167
:1019EC000AE0FFF75BFB02463B69D31A41F28832EF
:1019FC00934201D90323ABE0574B1B6A03F002035C
:101A0C00002BEED014E0FFF749FB38610AE0FFF73A
:101A1C0045FB02463B69D31A41F28832934201D905
:101A2C00032395E04C4B1B6A03F00203002BEED111
:101A3C00FB7D012B05D1484BDB69474A23F08053D2
:101A4C00D3617B68DB69002B00F08180424B5B68C3
:101A5C0003F00C03082B61D07B68DB69022B46D1A9
:101A6C003F4B00221A60FFF719FB386108E0FFF7C3
:101A7C0015FB02463B69D31A022B01D9032367E0FD
:101A8C00354B1B6803F00073002BF0D17B681B6A8D
:101A9C00B3F5803F08D1304B5B6823F400327B6890
:101AAC009B682D4913434B602B4B5B6823F47412DA
:101ABC007B68196A7B685B6A0B43274913434B604D
:101ACC00274B01221A60FFF7E9FA386108E0FFF7AB
:101ADC00E5FA02463B69D31A022B01D9032337E0FE
:101AEC001D4B1B6803F00073002BF0D02FE01C4B38
:101AFC0000221A60FFF7D2FA386108E0FFF7CEFA3D
:101B0C0002463B69D31A022B01D9032320E0124B66
:101B1C001B6803F00073002BF0D118E07B68DB69C5
:101B2C00012B01D1012313E00B4B5B68FB60FB68BD
:101B3C0003F480327B681B6A9A4206D1FB6803F47B
:101B4C0070127B685B6A9A4201D0012300E000238B
:101B5C0018461837BD4680BD00100240007000408A
:101B6C006000424280B584B000AF786039607B6819
:101B7C00002B01D10123D0E06A4B1B6803F0070353
:101B8C003A689A4210D9674B1B6823F007026549E3
:101B9C003B6813430B60634B1B6803F007033A6805
:101BAC009A4201D00123B8E07B681B6803F0020362
:101BBC00002B20D07B681B6803F00403002B05D09E
:101BCC00594B5B68584A43F4E06353607B681B686D
:101BDC0003F00803002B05D0534B5B68524A43F4C7
:101BEC0060535360504B5B6823F0F0027B689B683A
:101BFC004D4913434B607B681B6803F00103002BBA
:101C0C0040D07B685B68012B07D1474B1B6803F402
:101C1C000033002B15D101237FE07B685B68022B1E
:101C2C0007D1414B1B6803F00073002B09D1012332
:101C3C0073E03D4B1B6803F00203002B01D1012321
:101C4C006BE0394B5B6823F003027B685B683649B9
:101C5C0013434B60FFF722FAF8600AE0FFF71EFA15
:101C6C000246FB68D31A41F28832934201D903230E
:101C7C0053E02D4B5B6803F00C027B685B689B00A8
:101C8C009A42EBD1274B1B6803F007033A689A4240
:101C9C0010D2244B1B6823F0070222493B681343E4
:101CAC000B60204B1B6803F007033A689A4201D083
:101CBC00012332E07B681B6803F00403002B08D07F
:101CCC00194B5B6823F4E0627B68DB6816491343AD
:101CDC004B607B681B6803F00803002B09D0124B88
:101CEC005B6823F460527B681B69DB000E4913436D
:101CFC004B6000F021F802460B4B5B681B0903F0AC
:101D0C000F030A49CB5C22FA03F3094A1360094B0F
:101D1C001B681846FFF780F9002318461037BD469C
:101D2C0080BD00BF00200240001002407C2D000846
:101D3C00400000204400002090B48AB000AF2A4B31
:101D4C003C1D0FCB84E80F0040F201233B800023A5
:101D5C00FB610023BB6100237B6200237B610023BA
:101D6C003B62224B5B68FB61FB6903F00C03042BA9
:101D7C0002D0082B03D02DE01D4B3B622DE0FB69FC
:101D8C009B0C03F00F0307F12802134413F8243CB7
:101D9C007B61FB6903F48033002B13D0134B5B681E
:101DAC005B0C03F0010307F12802134413F8283CE1
:101DBC00BB617B690E4A02FB03F2BB69B2FBF3F316
:101DCC007B6204E07B690B4A02FB03F37B627B6A58
:101DDC003B6202E0064B3B6200BF3B6A1846283769
:101DEC00BD4690BC704700BF6C2D0008001002402F
:101DFC0000127A0000093D0080B485B000AF786015
:101E0C000A4B1B680A4AA2FB03235B0A7A6802FB93
:101E1C0003F3FB6000BFFB685A1EFA60002BF9D17C
:101E2C0000BF00BF1437BD4680BC70474000002087
:101E3C00D34D621080B582B000AF78607B68002B08
:101E4C0001D1012341E07B6893F83D30DBB2002BDC
:101E5C0006D17B68002283F83C207868FEF7ACFF43
:101E6C007B68022283F83D207B681A687B68043308
:101E7C001946104600F028FC7B68012283F84620A6
:101E8C007B68012283F83E207B68012283F83F2087
:101E9C007B68012283F840207B68012283F8412073
:101EAC007B68012283F842207B68012283F843205F
:101EBC007B68012283F844207B68012283F845204B
:101ECC007B68012283F83D20002318460837BD4665
:101EDC0080BD000080B485B000AF78607B6893F85B
:101EEC003D30DBB2012B01D001233AE07B680222AA
:101EFC0083F83D207B681B68DA687B681B6842F0BE
:101F0C000102DA607B681B68184A93420ED07B682A
:101F1C001B68B3F1804F09D07B681B68144A93424D
:101F2C0004D07B681B68134A934211D17B681B68F1
:101F3C009B6803F00703FB60FB68062B10D07B68E3
:101F4C001B681A687B681B6842F001021A6007E084
:101F5C007B681B681A687B681B6842F001021A6078
:101F6C00002318461437BD4680BC7047002C014036
:101F7C00000400400008004080B582B000AF7860DB
:101F8C007B68002B01D1012341E07B6893F83D3045
:101F9C00DBB2002B06D17B68002283F83C207868EA
:101FAC0000F039F87B68022283F83D207B681A68C0
:101FBC007B6804331946104600F086FB7B680122CF
:101FCC0083F846207B68012283F83E207B6801223F
:101FDC0083F83F207B68012283F840207B68012234
:101FEC0083F841207B68012283F842207B68012220
:101FFC0083F843207B68012283F844207B6801220C
:10200C0083F845207B68012283F83D200023184685
:10201C000837BD4680BD80B483B000AF786000BF88
:10202C000C37BD4680BC704780B584B000AF78607B
:10203C0039603B68002B09D17B6893F83E30DBB2EA
:10204C00012B14BF01230023DBB222E03B68042BDD
:10205C0009D17B6893F83F30DBB2012B14BF01230D
:10206C000023DBB215E03B68082B09D17B6893F8A1
:10207C004030DBB2012B14BF01230023DBB208E09C
:10208C007B6893F84130DBB2012B14BF0123002392
:10209C00DBB2002B01D001235EE03B68002B04D1A6
:1020AC007B68022283F83E2013E03B68042B04D1AA
:1020BC007B68022283F83F200BE03B68082B04D19D
:1020CC007B68022283F8402003E07B68022283F8BD
:1020DC0041207B681B6801223968184600F074FDAA
:1020EC007B681B681E4A934207D17B681B685A6C3D
:1020FC007B681B6842F400425A647B681B68184A70
:10210C0093420ED07B681B68B3F1804F09D07B687B
:10211C001B68144A934204D07B681B68124A934292
:10212C0011D17B681B689B6803F00703FB60FB689D
:10213C00062B10D07B681B681A687B681B6842F002
:10214C0001021A6007E07B681B681A687B681B68D1
:10215C0042F001021A60002318461037BD4680BDBC
:10216C00002C0140000400400008004080B582B003
:10217C0000AF78607B681B681B6903F00203022BBD
:10218C0022D17B681B68DB6803F00203022B1BD196
:10219C007B681B686FF002021A617B6801221A7758
:1021AC007B681B689B6903F00303002B03D07868E2
:1021BC0000F06FFA05E0786800F062FA786800F0D9
:1021CC0071FA7B6800221A777B681B681B6903F025
:1021DC000403042B22D17B681B68DB6803F0040327
:1021EC00042B1BD17B681B686FF004021A617B689F
:1021FC0002221A777B681B689B6903F44073002BDF
:10220C0003D0786800F045FA05E0786800F038FAF9
:10221C00786800F047FA7B6800221A777B681B68A5
:10222C001B6903F00803082B22D17B681B68DB6851
:10223C0003F00803082B1BD17B681B686FF00802A6
:10224C001A617B6804221A777B681B68DB6903F0D0
:10225C000303002B03D0786800F01BFA05E07868C4
:10226C0000F00EFA786800F01DFA7B6800221A77ED
:10227C007B681B681B6903F01003102B22D17B6851
:10228C001B68DB6803F01003102B1BD17B681B68E9
:10229C006FF010021A617B6808221A777B681B6842
:1022AC00DB6903F44073002B03D0786800F0F1F97C
:1022BC0005E0786800F0E4F9786800F0F3F97B68E1
:1022CC0000221A777B681B681B6903F00103012B42
:1022DC000ED17B681B68DB6803F00103012B07D16F
:1022EC007B681B686FF001021A617868FEF77AF957
:1022FC007B681B681B6903F08003802B0ED17B6805
:10230C001B68DB6803F08003802B07D17B681B689C
:10231C006FF080021A61786800F0E1FC7B681B6842
:10232C001B6903F04003402B0ED17B681B68DB68F4
:10233C0003F04003402B07D17B681B686FF0400211
:10234C001A61786800F0B7F97B681B681B6903F0A9
:10235C002003202B0ED17B681B68DB6803F0200365
:10236C00202B07D17B681B686FF020021A617868FC
:10237C0000F0ACFC00BF0837BD4680BD80B584B012
:10238C0000AFF860B9607A60FB6893F83C30012BC1
:10239C0001D10223ACE0FB68012283F83C207B686E
:1023AC000C2B00F29F8001A252F823F0ED230008C1
:1023BC00F1240008F1240008F12400082D24000861
:1023CC00F1240008F1240008F12400086F2400080F
:1023DC00F1240008F1240008F1240008AF240008BF
:1023EC00FB681B68B968184600F0D0F9FB681B68DD
:1023FC009A69FB681B6842F008029A61FB681B68CB
:10240C009A69FB681B6822F004029A61FB681B68DE
:10241C009969BB681A69FB681B680A439A6162E098
:10242C00FB681B68B968184600F016FAFB681B6855
:10243C009A69FB681B6842F400629A61FB681B682E
:10244C009A69FB681B6822F480629A61FB681B68BE
:10245C009969BB681B691A02FB681B680A439A617D
:10246C0041E0FB681B68B968184600F05FFAFB682E
:10247C001B68DA69FB681B6842F00802DA61FB68CA
:10248C001B68DA69FB681B6822F00402DA61FB68DE
:10249C001B68D969BB681A69FB681B680A43DA6157
:1024AC0021E0FB681B68B968184600F0A9FAFB68C4
:1024BC001B68DA69FB681B6842F40062DA61FB682E
:1024CC001B68DA69FB681B6822F48062DA61FB68BE
:1024DC001B68D969BB681B691A02FB681B680A4335
:1024EC00DA6100E000BFFB68002283F83C20002387
:1024FC0018461037BD4680BD80B584B000AF7860FB
:10250C0039607B6893F83C30012B01D10223B3E096
:10251C007B68012283F83C207B68022283F83D20F3
:10252C007B681B689B68FB60FB6823F07703FB6090
:10253C00FB6823F47F43FB607B681B68FA689A6036
:10254C003B681B68B3F5005F3ED0B3F5005F00F24B
:10255C008780B3F5805F00F08580B3F5805F7FD80E
:10256C00702B1AD0702B7BD8602B50D0602B77D867
:10257C00502B3CD0502B73D8402B58D0402B6FD8BD
:10258C00302B64D0302B6BD8202B60D0202B67D80D
:10259C00002B5CD0102B5AD062E07B6818683B682B
:1025AC0099683B685A683B68DB6800F0EEFA7B6818
:1025BC001B689B68FB60FB6843F07703FB607B68E0
:1025CC001B68FA689A604EE07B6818683B689968EB
:1025DC003B685A683B68DB6800F0D7FA7B681B687D
:1025EC009A687B681B6842F480429A603BE07B6887
:1025FC0018683B6859683B68DB681A4600F04EFA6D
:10260C007B681B685021184600F0A5FA2BE07B680C
:10261C0018683B6859683B68DB681A4600F06CFA2E
:10262C007B681B686021184600F095FA1BE07B68FC
:10263C0018683B6859683B68DB681A4600F02EFA4C
:10264C007B681B684021184600F085FA0BE07B681C
:10265C001A683B681B681946104600F07CFA02E0C9
:10266C0000BF00E000BF7B68012283F83D207B683F
:10267C00002283F83C20002318461037BD4680BD4D
:10268C0080B483B000AF786000BF0C37BD4680BC0F
:10269C00704780B483B000AF786000BF0C37BD4684
:1026AC0080BC704780B483B000AF786000BF0C373B
:1026BC00BD4680BC704780B483B000AF786000BF6B
:1026CC000C37BD4680BC704780B485B000AF7860D5
:1026DC0039607B681B68FB607B68294A93420BD08E
:1026EC007B68B3F1804F07D07B68264A934203D0B6
:1026FC007B68254A934208D1FB6823F07003FB608A
:10270C003B685B68FA681343FB607B681C4A934226
:10271C000BD07B68B3F1804F07D07B68194A93428A
:10272C0003D07B68184A934208D1FB6823F44073AA
:10273C00FB603B68DB68FA681343FB60FB6823F0C3
:10274C0080023B685B691343FB607B68FA681A6024
:10275C003B689A687B68DA623B681A687B689A62A5
:10276C007B68074A934203D13B681A697B681A63FA
:10277C007B6801225A6100BF1437BD4680BC70478C
:10278C00002C0140000400400008004080B487B0D9
:10279C0000AF786039607B681B6A23F001027B68AC
:1027AC001A627B681B6A7B617B685B683B617B6838
:1027BC009B69FB60FB6823F07003FB60FB6823F0F4
:1027CC000303FB603B681B68FA681343FB607B697F
:1027DC0023F002037B613B689B687A6913437B613E
:1027EC007B681C4A93420CD17B6923F008037B6104
:1027FC003B68DB687A6913437B617B6923F00403D4
:10280C007B617B68134A934211D13B6923F480733B
:10281C003B613B6923F400733B613B685B693A693C
:10282C0013433B613B689B693A6913433B617B688B
:10283C003A695A607B68FA689A613B685A687B68A7
:10284C005A637B687A691A6200BF1C37BD4680BC2C
:10285C00704700BF002C014080B487B000AF786097
:10286C0039607B681B6A23F010027B681A627B68F4
:10287C001B6A7B617B685B683B617B689B69FB6067
:10288C00FB6823F4E043FB60FB6823F44073FB60BC
:10289C003B681B681B02FA681343FB607B6923F0DF
:1028AC0020037B613B689B681B017A6913437B6146
:1028BC007B681D4A93420DD17B6923F080037B61B9
:1028CC003B68DB681B017A6913437B617B6923F0EE
:1028DC0040037B617B68144A934213D13B6923F418
:1028EC0080633B613B6923F400633B613B685B693C
:1028FC009B003A6913433B613B689B699B003A69B7
:10290C0013433B617B683A695A607B68FA689A6149
:10291C003B685A687B689A637B687A691A6200BF65
:10292C001C37BD4680BC7047002C014080B487B07A
:10293C0000AF786039607B681B6A23F480727B6817
:10294C001A627B681B6A7B617B685B683B617B6896
:10295C00DB69FB60FB6823F07003FB60FB6823F012
:10296C000303FB603B681B68FA681343FB607B69DD
:10297C0023F400737B613B689B681B027A691343E9
:10298C007B617B681D4A93420DD17B6923F4006304
:10299C007B613B68DB681B027A6913437B617B6953
:1029AC0023F480637B617B68144A934213D13B69A7
:1029BC0023F480533B613B6923F400533B613B6838
:1029CC005B691B013A6913433B613B689B691B01C3
:1029DC003A6913433B617B683A695A607B68FA68D1
:1029EC00DA613B685A687B68DA637B687A691A62D9
:1029FC0000BF1C37BD4680BC704700BF002C014097
:102A0C0080B487B000AF786039607B681B6A23F4B0
:102A1C0080527B681A627B681B6A3B617B685B68CF
:102A2C007B617B68DB69FB60FB6823F4E043FB6044
:102A3C00FB6823F44073FB603B681B681B02FA685D
:102A4C001343FB603B6923F400533B613B689B6879
:102A5C001B033A6913433B617B680F4A934209D1CC
:102A6C007B6923F480437B613B685B699B017A69DA
:102A7C0013437B617B687A695A607B68FA68DA6118
:102A8C003B685A687B681A647B683A691A6200BFB3
:102A9C001C37BD4680BC7047002C014080B487B009
:102AAC0000AFF860B9607A60FB681B6A7B61FB68F9
:102ABC001B6A23F00102FB681A62FB689B693B618D
:102ACC003B6923F0F0033B617B681B013A691343BC
:102ADC003B617B6923F00A037B617A69BB68134312
:102AEC007B61FB683A699A61FB687A691A6200BF7C
:102AFC001C37BD4680BC704780B487B000AFF8600F
:102B0C00B9607A60FB681B6A23F01002FB681A62DA
:102B1C00FB689B697B61FB681B6A3B617B6923F4E7
:102B2C0070437B617B681B037A6913437B613B6950
:102B3C0023F0A0033B61BB681B013A6913433B6163
:102B4C00FB687A699A61FB683A691A6200BF1C37A4
:102B5C00BD4680BC704780B485B000AF78603960EA
:102B6C007B689B68FB60FB6823F07003FB603A6832
:102B7C00FB68134343F00703FB607B68FA689A60B9
:102B8C0000BF1437BD4680BC704780B487B000AF1F
:102B9C00F860B9607A603B60FB689B687B617B691D
:102BAC0023F47F437B613B681A027B681A43BB6842
:102BBC0013437A6913437B61FB687A699A6000BF9F
:102BCC001C37BD4680BC704780B487B000AFF8603E
:102BDC00B9607A60BB6803F01F03012202FA03F3A9
:102BEC007B61FB681A6A7B69DB431A40FB681A62DB
:102BFC00FB681A6ABB6803F01F03796801FA03F3D8
:102C0C001A43FB681A6200BF1C37BD4680BC704774
:102C1C0080B485B000AF786039607B6893F83C3045
:102C2C00012B01D1022346E07B68012283F83C2072
:102C3C007B68022283F83D207B681B685B68FB6025
:102C4C007B681B689B68BB60FB6823F07003FB60B0
:102C5C003B681B68FA681343FB607B681B68FA6867
:102C6C005A607B681B68164A93420ED07B681B68BF
:102C7C00B3F1804F09D07B681B68124A934204D091
:102C8C007B681B68104A93420CD1BB6823F080030D
:102C9C00BB603B685B68BA681343BB607B681B68AE
:102CAC00BA689A607B68012283F83D207B68002219
:102CBC0083F83C20002318461437BD4680BC70476F
:102CCC00002C0140000400400008004080B483B098
:102CDC0000AF786000BF0C37BD4680BC704780B435
:102CEC0083B000AF786000BF0C37BD4680BC704726
:102CFC0070B500260C4D0D4C641BA410A64209D1D6
:102D0C0000F022F800260A4D0A4C641BA410A642BF
:102D1C0005D170BD55F8043B98470136EEE755F8E0
:102D2C00043B98470136F2E78C2D00088C2D0008E7
:102D3C008C2D0008902D000803460244934200D1CC
:102D4C00704703F8011BF9E7F8B500BFF8BC08BCE5
:102D5C009E467047F8B500BFF8BC08BC9E4670474D
:102D6C0002030405060708090A0B0C0D0E0F1010C0
:102D7C00000000000000000001020304060708091F
:042D8C003101000809
:042D90000D01000829
:102D9400010000000100000001000000010000002B
:102DA400010000000100000001000000010000001B
:102DB400010000000100000001000000010000000B
:102DC40001000000010000000100000001000000FB
:0C2DD4000024F4001000000001000000CA
:0400000508000FAD33
:00000001FF
