:020000040800F2
:1000000000500020D91700088D160008931600082C
:10001000991600089F160008A516000800000000A9
:10002000000000000000000000000000AB16000807
:10003000B716000800000000C3160008CF1600081D
:1000400021180008211800082118000821180008AC
:10005000211800082118000821180008211800089C
:10006000211800082118000821180008211800088C
:10007000211800082118000821180008211800087C
:10008000211800082118000821180008211800086C
:10009000211800082118000821180008211800085C
:1000A000211800082118000821180008211800084C
:1000B000DD160008F11600082118000821180008B4
:1000C000211800082118000821180008211800082C
:1000D0002118000821180008051700082118000839
:1000E000211800082118000821180008000000004D
:1000F0000000000000000000000000000000000000
:0C01000000000000000000005FF808F1A3
:10010C0010B5054C237833B9044B13B10448AFF345
:10011C0000800123237010BDD800002000000000D7
:10012C007449000808B5034B1BB103490348AFF3EE
:10013C00008008BD00000000DC00002074490008AD
:10014C0080B500AF2B4B1B68063B032B4ED801A28E
:10015C0052F823F07101000893010008B501000862
:10016C00D7010008244B1A68244B1B6824492548E6
:10017C0003F0C0FF03469AB24FF47A732149224828
:10018C0003F0FBFA33E01C4B1A681C4B1B681F492D
:10019C001C4803F0AFFF03469AB24FF47A73194927
:1001AC00194803F0EAFA22E0134B1A68134B1B6848
:1001BC001749144803F09EFF03469AB24FF47A7322
:1001CC001049114803F0D9FA11E00B4B1A680B4B8C
:1001DC001B6810490B4803F08DFF03469AB24FF48D
:1001EC007A730849084803F0C8FA00E000BF00BF62
:1001FC0080BD00BF0800002058010020980100209D
:10020C008C4900085C01002030020020A84900083D
:10021C00C4490008E049000880B500AF244B1B68B6
:10022C00FC2B42D1234B1B680C2B0CD122492348AD
:10023C0003F060FF03469AB24FF47A731F492048CB
:10024C0003F09BFA31E01B4B1B680D2B0CD11D49A5
:10025C001A4803F04FFF03469AB24FF47A731749CA
:10026C00174803F08AFA20E0124B1B680E2B0CD1B6
:10027C001549124803F03EFF03469AB24FF47A73C5
:10028C000E490F4803F079FA0FE00A4B1B68122B4A
:10029C000BD10E49094803F02DFF03469AB24FF4D7
:1002AC007A730649064803F068FA00BF80BD00BFA8
:1002BC00000000200C000020FC4900085C0100201C
:1002CC0030020020144A00082C4A0008444A000856
:1002DC0080B500AF244B1B68FD2B43D1234B1B680F
:1002EC000F2B12D1224B1A68224B1B6813441A464F
:1002FC002149224803F0FEFE03469AB24FF47A736A
:10030C001E491F4803F039FA2CE0184B1B68102BC0
:10031C0012D11C4B1A68174B1B6813441A461A4906
:10032C00164803F0E7FE03469AB24FF47A7313496A
:10033C00134803F022FA15E00C4B1B68112B11D15A
:10034C00124B1A680B4B1B6813441A4610490B4886
:10035C0003F0D0FE03469AB24FF47A73074908486B
:10036C0003F00BFA00BF80BD00000020100000203D
:10037C0060000020940100205C4A00085C01002011
:10038C003002002064000020704A00086800002041
:10039C00844A000880B500AF5E4B1B68063B032BFC
:1003AC0000F2AD8001A252F823F000BF6B040008EC
:1003BC00AB040008C90300080B04000800F03CFF64
:1003CC0000F026FF544B1B68544A1360544B1B68B7
:1003DC00544A1360FFF7B4FE4F4B1B68013B4E4A67
:1003EC0013604F4B1B68013B4D4A13604A4B1B6813
:1003FC00002B00F38680474B09221A6081E000F045
:10040C00F3FE00F019FF484B1B68444A1360444B41
:10041C001B68444A1360FFF793FE434B1B68013B78
:10042C00414A13603E4B1B68013B3D4A13603E4BF7
:10043C001B68002B03DD3A4B1B68002B63DC3B4B2A
:10044C001B68354A13603A4B1B68354A1360394BAD
:10045C001B68354A13602F4B06221A6053E000F0DC
:10046C00AFFE00F009FF2E4B1B682C4A13602A4B81
:10047C001B682C4A1360FFF763FE294B1B68013B7A
:10048C00274A1360244B1B68013B234A1360224B01
:10049C001B68002B39DC1F4B07221A6035E000F07B
:1004AC008FFE00F0D9FE1E4B1B681C4A13601E4BBE
:1004BC001B681C4A1360FFF743FE194B1B68013B7A
:1004CC00174A1360184B1B68013B174A1360164BF5
:1004DC001B68002B03DD124B1B68002B17DC134B26
:1004EC001B680D4A1360124B1B680D4A1360114BAD
:1004FC001B680D4A1360074B08221A6007E000BF07
:10050C0006E000BF04E000BF02E000BF00E000BF57
:10051C0000BF80BD080000205401002058010020BD
:10052C0090010020980100209C0100206800002010
:10053C00600000206400002080B500AF4B4B1B68AE
:10054C00002B05D0FFF768FE4FF47A7000F032FFF5
:10055C00474B1B680C3B072B66D801A252F823F0C3
:10056C00CD050008E705000801060008350600085F
:10057C0035060008350600081B0600088D05000826
:10058C003C4B1B68082B03D1394B0C221A604DE0F5
:10059C00384B1B68092B03D1354B0D221A6045E0F3
:1005AC00344B1B68062B03D1314B0E221A603DE0F5
:1005BC00304B1B68072B39D12D4B12221A6035E0BA
:1005CC0000F026FE00F038FE00F0D8FD0346002BAC
:1005DC002ED0274B0D221A602AE000F005FE00F009
:1005EC002BFE00F0CBFD0346002B23D0204B0E221C
:1005FC001A601FE000F0E4FD00F03EFE00F0BEFDCE
:10060C000346002B18D01A4B12221A6014E000F08B
:10061C00D7FD00F021FE00F0B1FD0346002B0DD0FC
:10062C00134B0C221A6009E000BF08E000BF06E083
:10063C0000BF04E000BF02E000BF00E000BF00F01C
:10064C00A5FD0346002B0ED00B4BFE221A60084B67
:10065C0013221A60074B1B68084A136000F058FEFF
:10066C00642000F08DFE00BF80BD00BF340100206F
:10067C000C000020040000200000002008000020D6
:10068C0080B500AF404B1B68FB3B042B70D801A21C
:10069C0052F823F0670700082D0700084D070008E3
:1006AC00CD060008B506000801F06CF8364BFE22AA
:1006BC001A60364B08221A60642000F061FE60E07C
:1006CC00334B1B68012B05D1FFF764FE4FF47A7096
:1006DC0000F056FE00F04AFD0346002B0ED02B4BCB
:1006EC001B682C4A136000F013FE274BFC221A6087
:1006FC00294B13221A60642000F05CFE00F04EFDC2
:10070C000346002B36D0214B1B68224A136000F0A5
:10071C00FFFD1D4BFB221A60642000F031FE29E026
:10072C00FFF70AFF00F022FD0346002B24D0164BE6
:10073C00FD221A60642000F03DFE00F0E9FD1BE094
:10074C0000F02CF800F012FD0346002B16D00E4BD7
:10075C00FE221A6000F0DCFD10E00D4B1B68002B34
:10076C000ED000F04DFB4FF47A7000F009FE07E05C
:10077C0000BF06E000BF04E000BF02E000BF00E0E5
:10078C0000BF00BF80BD00BF00000020080000209B
:10079C002C010020040000200C00002080B500AFCC
:1007AC00884B1B68112B00F0B380112B00F30181D7
:1007BC000F2B02D0102B5BD0FBE000F001FD00F002
:1007CC003BFD00F0DBFC0346002B06D07E4B1B6888
:1007DC0001337D4A1360FFF77BFD00F0DFFC03461D
:1007EC00002B06D0784B1B68013B774A1360FFF750
:1007FC006FFD00F0BBFC0346002B0AD0734B10229C
:10080C001A60714B00221A60642000F0D3FD00F0D6
:10081C007FFD00F0BBFC0346002B00F0CC806C4B42
:10082C001A68694B1B681344694A1360664B1B6852
:10083C00684A82FB0312DB17D21A674B1B681344FE
:10084C00654A1360604B1B68624A82FB0312DB171C
:10085C009A1A5D4B1B681A44604B1B6813445F4A21
:10086C001360594B00221A60584BFE221A60A2E00A
:10087C0000F0BAFC00F0F0FC00F080FC0346002B0A
:10088C0006D0514B1B6801334F4A1360FFF720FD14
:10089C0000F084FC0346002B06D04B4B1B68013B3D
:1008AC00494A1360FFF714FD00F060FC0346002B6F
:1008BC000AD0464B11221A60434B00221A60642066
:1008CC0000F078FD00F024FD00F060FC0346002BE6
:1008DC0073D0414B1A683C4B1B6813443E4A13605F
:1008EC00394B1A6813465B001A44394B1B68134486
:1008FC00374A1360364B1A68374B1B68D31A374A82
:10090C001360314B00221A60304BFE221A6054E007
:10091C0000F07EFC00F0B0FC00F030FC0346002B35
:10092C0006D0294B1B680133274A1360FFF7D0FC14
:10093C0000F034FC0346002B06D0234B1B68013B14
:10094C00214A1360FFF7C4FC00F010FC0346002B97
:10095C000AD01E4B0F221A601B4B00221A60642017
:10096C0000F028FD00F0D4FC00F010FC0346002B36
:10097C0025D01A4B1A68144B1B681344174A136082
:10098C00114B1B68DA0F13445B101A46124B1B6891
:10099C001344114A1360114B1A680F4B1B68134414
:1009AC000B4A1360084B00221A60084BFE221A6097
:1009BC0005E000BF04E000BF02E000BF00E000BFA4
:1009CC0000BF80BD1000002094010020000000201A
:1009DC00600000205655555564000020680000202A
:1009EC0080B500AF00F018FF00F05CF800F088F95B
:1009FC0000F09AF800F0E4F800F058F9214BFF22CF
:100A0C001A600021204802F007F8204801F05AFF34
:100A1C00642000F09BFC1E4B1B68002B05D000F0E3
:100A2C00C5FB4FF4FA7000F091FCFFF729FE194B4F
:100A3C001B681E2BEFD1184B1B68012BEBD1174BEE
:100A4C001968174B83FB01239A10CB17D21A134644
:100A5C009B0013445B00CA1A002A05D10F4B1A687D
:100A6C00094B1B685A6303E0074B1B6800225A634F
:100A7C000A4B1B680533094A1360FA2000F09AFCF4
:100A8C00C9E700BF00000020A0010020E801002001
:100A9C002401002014000020340100204801002013
:100AAC006766666680B590B000AF07F11803282220
:100ABC000021184603F016FB3B1D00221A605A60F9
:100ACC009A60DA601A610223BB610123BB621023B6
:100ADC00FB6202237B630023BB634FF46013FB6355
:100AEC0007F11803184601F083FA0346002B01D0D6
:100AFC0000F080F90F237B600223BB600023FB60B6
:100B0C004FF480633B6100237B613B1D022118463F
:100B1C0001F0EEFC0346002B01D000F06BF900BF96
:100B2C004037BD4680BD000080B586B000AF07F1F0
:100B3C00080300221A605A609A60DA603B46002271
:100B4C001A605A601D4B4FF080421A601B4B4FF6D7
:100B5C00FF125A60194B00229A60184B0922DA6076
:100B6C00164B00221A61154B00229A61134801F0B2
:100B7C0059FE0346002B01D000F03CF94FF4805392
:100B8C00BB6007F1080319460C4802F0ADF90346A7
:100B9C00002B01D000F02EF900233B6000237B607A
:100BAC003B461946054802F02BFD0346002B01D0AD
:100BBC0000F020F900BF1837BD4680BDE8010020C9
:100BCC0080B58EB000AF07F1280300221A605A607E
:100BDC009A60DA6007F1200300221A605A603B1D0C
:100BEC0000221A605A609A60DA601A615A619A613E
:100BFC002C4B2D4A1A602B4B3F225A60294B00225A
:100C0C009A60284B40F2E732DA60264B00221A61D8
:100C1C00244B80229A61234801F004FE0346002BEA
:100C2C0001D000F0E7F84FF48053BB6207F12803C2
:100C3C0019461C4802F058F90346002B01D000F06D
:100C4C00D9F8184801F090FE0346002B01D000F0B3
:100C5C00D1F800233B6200237B6207F12003194685
:100C6C00104802F0CDFC0346002B01D000F0C2F876
:100C7C0060237B600023BB600023FB6000237B614F
:100C8C003B1D00221946074802F070F80346002B62
:100C9C0001D000F0AFF8034800F06EFC00BF38370D
:100CAC00BD4680BDA00100200004004080B500AF0F
:100CBC00114B124A1A60104B4FF416525A600E4BDD
:100CCC0000229A600C4B0022DA600B4B00221A6156
:100CDC00094B0C225A61084B00229A61064B0022E8
:100CEC00DA61054802F0FCFC0346002B01D000F051
:100CFC0081F800BF80BD00BF3002002000440040DE
:100D0C0080B586B000AF07F1080300221A605A6064
:100D1C009A60DA602E4B9B692D4A43F00403936171
:100D2C002B4B9B6903F004037B607B68284B9B690E
:100D3C00274A43F008039361254B9B6903F0080392
:100D4C003B603B6800224FF4A461224801F01FF97C
:100D5C0000224FF48761204801F019F91323BB607E
:100D6C000023FB6001233B6107F108031946194876
:100D7C0000F072FF4FF4A463BB600123FB600023FF
:100D8C003B6102237B6107F108031946114800F00F
:100D9C0063FF0123BB600023FB6001233B6107F170
:100DAC00080319460C4800F057FF4FF48763BB60EB
:100DBC000123FB6000233B6102237B6107F10803E5
:100DCC001946054800F048FF00BF1837BD4680BDE6
:100DDC000010024000080140000C014080B582B0B8
:100DEC0000AF786000F000FB00F0CEF800BF0837D1
:100DFC00BD4680BD80B400AF72B600BFFEE70000F8
:100E0C0080B500AFFFF79CF9544B1B681B3B032BC1
:100E1C0000F29D8001A252F823F000BF390E0008A9
:100E2C00570E00089F0E0008FB0E00084B4B1C22AF
:100E3C001A604B4B09221A604A4B1B684A4A1360D2
:100E4C004A4B1B684A4A136086E000F0CDF900F06B
:100E5C00F3F900F021FA444B1B68464A1360424BED
:100E6C001B68454A1360FFF76BF93F4B1B68013B4E
:100E7C003D4A13603C4B1B68002B6ADC394B1B68EA
:100E8C00394A1360364B06221A60344B1D221A6005
:100E9C005FE000F095F900F0EFF900F011FA344B37
:100EAC001B68344A1360354B1B68334A1360FFF7D9
:100EBC0047F9324B1B68013B304A13602C4B1B68C3
:100ECC00013B2B4A13602D4B1B68002B43D100F0C8
:100EDC000BFA2B4B1B68294A1360214B07221A6013
:100EEC00642000F067FA1D4B1E221A6033E000F0FC
:100EFC0067F900F0B1F91E4B1B681E4A13601A4BC0
:100F0C001B681D4A1360FFF71BF9194B1B68013B4B
:100F1C00174A1360144B1B68013B134A1360124BA6
:100F2C001B68002B03DD124B1B68002B0FDC00F041
:100F3C00B3F90B4B08221A60104B1B680D4A136057
:100F4C000B4B1B680C4A13600E4BFE221A6000BF41
:100F5C0002E000BF00E000BF00BF80BD1400002015
:100F6C0008000020640000209C010020600000208C
:100F7C00900100205801002098010020540100200D
:100F8C00680000200000002080B582B000AF002374
:100F9C007B60B1E05D4A7B6852F823205C497B683A
:100FAC0041F823205B4A7B6852F8232057497B6821
:100FBC0041F823207B68032B36D801A252F823F08A
:100FCC00DD0F0008F30F0008091000081F100008BF
:100FDC000221514800F0C4FF034619464D4A7B6874
:100FEC0042F8231021E010214B4800F0B9FF0346D2
:100FFC001946484A7B6842F8231016E001214748FD
:10100C0000F0AEFF03461946424A7B6842F82310B3
:10101C000BE00121404800F0A3FF034619463D4A6E
:10102C007B6842F8231000E000BF384A7B6852F816
:10103C00232038497B6851F823309A4259D1334ADE
:10104C007B6852F8232032497B6851F823309A424E
:10105C004FD1334A7B6852F823202D497B6851F8D5
:10106C0023309A421FD02A4A7B6852F823202C49FD
:10107C007B6841F823202A4A7B6852F82330002BE6
:10108C000BD1284A7B68012142F82310264A7B6841
:10109C004FF4967142F823102BE0244A7B68002110
:1010AC0042F8231025E0204A7B6852F823305A1E60
:1010BC001D497B6841F823201B4A7B6852F823307A
:1010CC00002B16DC164A7B6852F82330002B05D116
:1010DC00164A7B68012142F8231004E0134A7B680E
:1010EC00002142F82310104A7B684FF4967142F8A5
:1010FC0023107B6801337B607B68032B7FF74AAF3F
:10110C0000BF00BF0837BD4680BD00BF38000020BF
:10111C00480000202800002000080140000C01407D
:10112C001800002014010020F4000020040100200D
:10113C0080B483B000AF78607B68032B01DD0023A3
:10114C000DE0094A7B6852F82330012B06D1064A80
:10115C007B68002142F82310012300E0002318468D
:10116C000C37BD4680BC70471401002080B500AF21
:10117C000020FFF7DDFF0346184680BD80B500AFA9
:10118C000120FFF7D5FF0346184680BD80B500AFA0
:10119C000220FFF7CDFF0346184680BD80B500AF97
:1011AC000320FFF7C5FF0346184680BD80B500AF8E
:1011BC002021024800F003FF00BF80BD0008014061
:1011CC0080B500AF01224FF48061054800F0DFFECE
:1011DC0000220821034800F0DAFE00BF80BD00BFEA
:1011EC0000080140000C014080B500AF01224FF413
:1011FC008061054800F0CBFE01220821034800F075
:10120C00C6FE00BF80BD00BF00080140000C0140BD
:10121C0080B500AF00224FF48061054800F0B7FEA6
:10122C0001220821034800F0B2FE00BF80BD00BFC0
:10123C0000080140000C014080B500AF01222021C4
:10124C00044800F0A4FE00221021024800F09FFE8A
:10125C0000BF80BD000C014080B500AF01222021F1
:10126C00044800F094FE01221021024800F08FFE89
:10127C0000BF80BD000C014080B500AF00222021D2
:10128C00044800F084FE01221021024800F07FFE89
:10129C0000BF80BD000C014080B500AF01224FF4AF
:1012AC008061054800F073FE00224FF48071034802
:1012BC0000F06DFE00BF80BD000C01400008014035
:1012CC0080B500AF00224FF48061054800F05FFE4E
:1012DC0001224FF48071034800F059FE00BF80BD1D
:1012EC00000C01400008014080B500AF00224FF413
:1012FC008061054800F04BFE00224FF480710348DA
:10130C0000F045FE00BF80BD000C0140000801400C
:10131C0080B500AF00224FF480610A4800F037FE20
:10132C0000220821084800F032FE00222021064845
:10133C0000F02DFE00221021034800F028FE00BF13
:10134C0080BD00BF00080140000C014080B483B098
:10135C0000AF7860074B1B687A6892FBF3F3064A80
:10136C001360064B00221A6000BF0C37BD4680BCD0
:10137C00704700BF580000202801002024010020E5
:10138C0080B483B000AF7860074B1B687A6892FB1F
:10139C00F3F3064A1360064B00221A6000BF0C37A9
:1013AC00BD4680BC704700BF5800002030010020B3
:1013BC002C01002080B483B000AF7860074B1B6811
:1013CC007A6892FBF3F3064A1360064B00221A600C
:1013DC0000BF0C37BD4680BC704700BF58000020D2
:1013EC00380100203401002080B400AF214B1B6871
:1013FC00002B0BDD1F4B1B68013B1E4A13601D4B62
:10140C001B68002B02DC1C4B01221A601B4B1B6857
:10141C00002B0BDD194B1B68013B184A1360174B53
:10142C001B68002B02DC164B01221A60154B1B6843
:10143C00002B0BDD134B1B68013B124A1360114B45
:10144C001B68002B02DC104B01221A600F4B1B682F
:10145C00002B0BDD0D4B1B68013B0C4A13600B4B37
:10146C001B68002B02DC0A4B01221A6000BFBD4630
:10147C0080BC70472801002024010020300100208E
:10148C002C010020380100203401002040010020F4
:10149C003C01002080B485B000AF154B9B69144A09
:1014AC0043F001039361124B9B6903F00103BB6092
:1014BC00BB680F4BDB690E4A43F08053D3610C4B76
:1014CC00DB6903F080537B607B680A4B5B68FB60D5
:1014DC00FB6823F0E063FB60FB6843F00073FB6088
:1014EC00044AFB68536000BF1437BD4680BC70478C
:1014FC00001002400000014080B584B000AF78605D
:10150C007B681B68B3F1804F14D1194BDB69184A07
:10151C0043F00103D361164BDB6903F00103FB605D
:10152C00FB68002200211C2000F0AFFA1C2000F008
:10153C00C8FA18E07B681B680E4A934213D10C4B17
:10154C00DB690B4A43F00203D361094BDB6903F0FF
:10155C000203BB60BB68002200211D2000F095FA3D
:10156C001D2000F0AEFA00BF1037BD4680BD00BF95
:10157C00001002400004004080B588B000AF7860D5
:10158C0007F1100300221A605A609A60DA607B68D7
:10159C001B680F4A934217D10E4B9B690D4A43F0BF
:1015AC00040393610B4B9B6903F00403FB60FB6822
:1015BC0040233B6102237B610223FB6107F1100393
:1015CC001946054800F048FB00BF2037BD4680BDDA
:1015DC0000040040001002400008014080B588B0B3
:1015EC0000AF786007F1100300221A605A609A600D
:1015FC00DA607B681B681F4A934237D11E4BDB694C
:10160C001D4A43F40033D3611B4BDB6903F40033F5
:10161C00FB60FB68184B9B69174A43F0040393610A
:10162C00154B9B6903F00403BB60BB6804233B614F
:10163C0002237B610323FB6107F1100319460F485A
:10164C0000F00AFB08233B6100237B610023BB6194
:10165C0007F110031946094800F0FEFA0022002198
:10166C00262000F012FA262000F02BFA00BF2037BB
:10167C00BD4680BD004400400010024000080140FF
:10168C0080B400AFFEE780B400AFFEE780B400AFDB
:10169C00FEE780B400AFFEE780B400AFFEE780B495
:1016AC0000AF00BFBD4680BC704780B400AF00BF28
:1016BC00BD4680BC704780B400AF00BFBD4680BC47
:1016CC00704780B500AF00F0EDF800BF80BD0000A2
:1016DC0080B500AF024801F041FA00BF80BD00BFE9
:1016EC00E801002080B500AF024801F037FA00BFD6
:1016FC0080BD00BFA001002080B500AF024802F001
:10170C00CFF800BF80BD00BF3002002080B586B08E
:10171C0000AF7860144A154BD31A7B617B693B612F
:10172C00134B1B68002B02D1114B124A1A60104B41
:10173C001A687B6813443A699A4207D202F0A8FCF3
:10174C0003460C221A604FF0FF3309E0084B1B686C
:10175C00FB60074B1A687B681344054A1360FB68EF
:10176C0018461837BD4680BD00500020000400000C
:10177C00440100208802002080B400AF00BFBD46A9
:10178C0080BC704780B500AFFFF7C2FD084B1B68EB
:10179C00084A1360084B1B68084A1360084B1B6807
:1017AC00084A1360084B00221A6000BF80BD00BFBE
:1017BC006000002090010020640000209C010020AB
:1017CC006800002054010020940100200C480D49B1
:1017DC000D4A002302E0D458C4500433C4188C4280
:1017EC00F9D30A4A0A4C002301E013600432A242E6
:1017FC00FBD3FFF7C1FF02F051FCFFF7F1F8704784
:10180C0000000020D8000020FC4A0008D80000206E
:10181C0088020020FEE7000080B500AF084B1B6873
:10182C00074A43F010031360032000F023F90F2044
:10183C0000F008F8FFF72EFE0023184680BD00BF0D
:10184C000020024080B582B000AF7860124B1A685D
:10185C00124B1B7819464FF47A73B3FBF1F3B2FBBE
:10186C00F3F3184600F03BF90346002B01D001239B
:10187C000EE07B680F2B0AD8002279684FF0FF30FE
:10188C0000F003F9064A7B681360002300E0012393
:10189C0018460837BD4680BD5C0000207000002053
:1018AC006C00002080B400AF054B1B781A46054B2A
:1018BC001B681344034A136000BFBD4680BC7047CD
:1018CC00700000207402002080B400AF024B1B6833
:1018DC001846BD4680BC70477402002080B485B0A9
:1018EC0000AF78607B6803F00703FB600C4BDB6890
:1018FC00BB60BA684FF6FF031340BB60FB681A026B
:10190C00BB68134343F0BF6343F40033BB60044A2A
:10191C00BB68D36000BF1437BD4680BC704700BFA6
:10192C0000ED00E080B400AF044BDB681B0A03F051
:10193C0007031846BD4680BC704700BF00ED00E0B1
:10194C0080B483B000AF0346FB7197F90730002BCE
:10195C000BDBFB7903F01F02064997F907305B0993
:10196C00012000FA02F241F8232000BF0C37BD46DB
:10197C0080BC704700E100E080B483B000AF034648
:10198C003960FB7197F90730002B0ADB3B68DAB240
:10199C000C4997F907301201D2B20B4483F800239B
:1019AC000AE03B68DAB20849FB7903F00F03043B09
:1019BC001201D2B20B441A7600BF0C37BD4680BC64
:1019CC00704700BF00E100E000ED00E080B489B09A
:1019DC0000AFF860B9607A60FB6803F00703FB6145
:1019EC00FB69C3F10703042B28BF0423BB61FB690C
:1019FC000433062B02D9FB69033B00E000237B6117
:101A0C004FF0FF32BB6902FA03F3DA43BB681A40AA
:101A1C007B699A404FF0FF317B6901FA03F3D9439C
:101A2C007B680B40134318462437BD4680BC704777
:101A3C0080B582B000AF78607B68013BB3F1807FEA
:101A4C0001D301230FE00A4A7B68013B53600F214D
:101A5C004FF0FF30FFF790FF054B00229A60044BCC
:101A6C0007221A60002318460837BD4680BD00BF08
:101A7C0010E000E080B582B000AF78607868FFF7C6
:101A8C002DFF00BF0837BD4680BD80B586B000AFC6
:101A9C000346B9607A60FB7300237B61FFF742FF5A
:101AAC0078617A68B9687869FFF790FF024697F910
:101ABC000F3011461846FFF75FFF00BF1837BD46C1
:101ACC0080BD80B582B000AF0346FB7197F907303B
:101ADC001846FFF735FF00BF0837BD4680BD80B5FF
:101AEC0082B000AF78607868FFF7A2FF0346184613
:101AFC000837BD4680BD80B485B000AF7860002348
:101B0C00FB737B6893F82130022B08D07B6804228E
:101B1C009A637B68002283F82020012320E07B68F5
:101B2C001B681A687B681B6822F00E021A607B68BF
:101B3C001B681A687B681B6822F001021A607B68BC
:101B4C001A6C7B68DB6B012101FA02F25A607B682C
:101B5C00012283F821207B68002283F82020FB7B64
:101B6C0018461437BD4680BC7047000080B584B061
:101B7C0000AF78600023FB737B6893F82130022B55
:101B8C0005D07B6804229A630123FB7351E07B68C8
:101B9C001B681A687B681B6822F00E021A607B684F
:101BAC001B681A687B681B6822F001021A607B684C
:101BBC001B68224A934229D07B681B68204A9342B7
:101BCC0022D07B681B681F4A93421AD07B681B6823
:101BDC001D4A934212D07B681B681C4A93420AD060
:101BEC007B681B681A4A934202D14FF480130EE0B3
:101BFC004FF080730BE04FF4803308E04FF48053C8
:101C0C0005E04FF4807302E0102300E00123114A39
:101C1C0053607B68012283F821207B68002283F8C3
:101C2C0020207B685B6B002B03D07B685B6B786838
:101C3C009847FB7B18461037BD4680BD0800024014
:101C4C001C00024030000240440002405800024098
:101C5C006C0002400000024080B48BB000AF786092
:101C6C00396000237B6200233B6269E101227B6ABD
:101C7C0002FA03F3FB613B681B68FA691340BB6112
:101C8C00BA69FB699A4240F058813B685B689A4A92
:101C9C0093425ED0984A934275D8984A934258D052
:101CAC00964A93426FD8964A934252D0944A9342A2
:101CBC0069D8944A93424CD0924A934263D8924A40
:101CCC00934246D0904A93425DD8122B2AD8122BBD
:101CDC0059D801A252F823F05F1D0008391D0008E5
:101CEC004B1D00088D1D0008931D0008931D000856
:101CFC00931D0008931D0008931D0008931D0008F8
:101D0C00931D0008931D0008931D0008931D0008E7
:101D1C00931D0008931D0008931D0008411D000829
:101D2C00551D0008794A934213D02CE03B68DB68C0
:101D3C003B6229E03B68DB6804333B6224E03B6890
:101D4C00DB6808333B621FE03B68DB680C333B62AB
:101D5C001AE03B689B68002B02D104233B6213E022
:101D6C003B689B68012B05D108233B627B68FA69B1
:101D7C001A6109E008233B627B68FA695A6103E047
:101D8C0000233B6200E000BFBB69FF2B01D87B68DE
:101D9C0001E07B6804337B61BB69FF2B02D87B6A53
:101DAC009B0002E07B6A083B9B003B617B691A68E5
:101DBC000F213B6901FA03F3DB431A40396A3B6993
:101DCC0001FA03F31A437B691A603B685B6803F002
:101DDC008053002B00F0B1804D4B9B694C4A43F073
:101DEC00010393614A4B9B6903F00103BB60BB6821
:101DFC00484A7B6A9B08023352F82330FB607B6AAB
:101E0C0003F003039B000F2202FA03F3DB43FA688F
:101E1C001340FB607B68404A934213D07B683F4A77
:101E2C0093420DD07B683E4A934207D07B683D4A73
:101E3C00934201D1032306E0042304E0022302E0D1
:101E4C00012300E000237A6A02F00302920093401F
:101E5C00FA681343FB602F497B6A9B080233FA68CC
:101E6C0041F823203B685B6803F48033002B06D0D9
:101E7C002D4B1A682C49BB6913430B6006E02A4BA7
:101E8C001A68BB69DB43284913400B603B685B68ED
:101E9C0003F40033002B06D0234B5A682249BB694C
:101EAC0013434B6006E0204B5A68BB69DB431E4969
:101EBC0013404B603B685B6803F48013002B06D027
:101ECC00194B9A681849BB6913438B6006E0164B93
:101EDC009A68BB69DB43144913408B603B685B68B1
:101EEC0003F40013002B21D00F4BDA680E49BB69A9
:101EFC001343CB6021E000BF000032100000311012
:101F0C00000022100000211000001210000011101F
:101F1C00001002400000014000080140000C01408C
:101F2C000010014000140140000401400B4BDA6822
:101F3C00BB69DB4309491340CB607B6A01337B628D
:101F4C003B681A687B6A22FA03F3002B7FF48EAE8F
:101F5C0000BF00BF2C37BD4680BC70470004014059
:101F6C0080B485B000AF78600B467B807B689A6844
:101F7C007B881340002B02D00123FB7301E000236C
:101F8C00FB73FB7B18461437BD4680BC704780B48E
:101F9C0083B000AF78600B467B8013467B707B78F8
:101FAC00002B03D07A887B681A6103E07B881A04C3
:101FBC007B681A6100BF0C37BD4680BC704780B48B
:101FCC0085B000AF78600B467B807B68DB68FB607C
:101FDC007A88FB6813401A04FB68D9437B880B4052
:101FEC001A437B681A6100BF1437BD4680BC70472A
:101FFC0080B586B000AF78607B68002B01D10123DF
:10200C006CE27B681B6803F00103002B00F08780F7
:10201C00924B5B6803F00C03042B0CD08F4B5B686A
:10202C0003F00C03082B12D18C4B5B6803F4803348
:10203C00B3F5803F0BD1894B1B6803F40033002BA5
:10204C006CD07B685B68002B68D1012346E27B680F
:10205C005B68B3F5803F06D1804B1B687F4A43F425
:10206C00803313602EE07B685B68002B0CD17B4BBC
:10207C001B687A4A23F480331360784B1B68774AC9
:10208C0023F4802313601DE07B685B68B3F5A02FFD
:10209C000CD1724B1B68714A43F4802313606F4B55
:1020AC001B686E4A43F4803313600BE06B4B1B6868
:1020BC006A4A23F480331360684B1B68674A23F425
:1020CC00802313607B685B68002B13D0FFF7FCFB4D
:1020DC00386108E0FFF7F8FB02463B69D31A642B22
:1020EC0001D90323FAE15D4B1B6803F40033002B89
:1020FC00F0D014E0FFF7E8FB386108E0FFF7E4FBF1
:10210C0002463B69D31A642B01D90323E6E1534BF6
:10211C001B6803F40033002BF0D100E000BF7B6898
:10212C001B6803F00203002B63D04C4B5B6803F07D
:10213C000C03002B0BD0494B5B6803F00C03082BF2
:10214C001CD1464B5B6803F48033002B16D1434BF8
:10215C001B6803F00203002B05D07B681B69012B65
:10216C0001D00123BAE13D4B1B6823F0F8027B68D8
:10217C005B69DB00394913430B603AE07B681B69F0
:10218C00002B20D0364B01221A60FFF79DFB3861E3
:10219C0008E0FFF799FB02463B69D31A022B01D9E1
:1021AC0003239BE12D4B1B6803F00203002BF0D0A3
:1021BC002A4B1B6823F0F8027B685B69DB0027491C
:1021CC0013430B6015E0264B00221A60FFF77CFBD3
:1021DC00386108E0FFF778FB02463B69D31A022B03
:1021EC0001D903237AE11D4B1B6803F00203002B7A
:1021FC00F0D17B681B6803F00803002B3AD07B6896
:10220C009B69002B19D0174B01221A60FFF75CFB5E
:10221C00386108E0FFF758FB02463B69D31A022BE2
:10222C0001D903235AE10D4B5B6A03F00203002B27
:10223C00F0D0012000F0D8FA1CE00A4B00221A6002
:10224C00FFF742FB38610FE0FFF73EFB02463B69AC
:10225C00D31A022B08D9032340E100BF001002401F
:10226C0000004242800442429E4B5B6A03F0020330
:10227C00002BE9D17B681B6803F00403002B00F0F2
:10228C00A6800023FB75974BDB6903F08053002B72
:10229C000DD1944BDB69934A43F08053D361914B3E
:1022AC00DB6903F08053BB60BB680123FB758E4B6D
:1022BC001B6803F48073002B18D18B4B1B688A4A64
:1022CC0043F480731360FFF7FFFA386108E0FFF7FF
:1022DC00FBFA02463B69D31A642B01D90323FDE0B8
:1022EC00814B1B6803F48073002BF0D07B68DB6898
:1022FC00012B06D17B4B1B6A7A4A43F00103136214
:10230C002DE07B68DB68002B0CD1764B1B6A754A81
:10231C0023F001031362734B1B6A724A23F004030C
:10232C0013621CE07B68DB68052B0CD16D4B1B6AC0
:10233C006C4A43F0040313626A4B1B6A694A43F00C
:10234C00010313620BE0674B1B6A664A23F001031F
:10235C001362644B1B6A634A23F0040313627B68A9
:10236C00DB68002B15D0FFF7AFFA38610AE0FFF7F6
:10237C00ABFA02463B69D31A41F28832934201D937
:10238C000323ABE0574B1B6A03F00203002BEED088
:10239C0014E0FFF799FA38610AE0FFF795FA024664
:1023AC003B69D31A41F28832934201D9032395E059
:1023BC004C4B1B6A03F00203002BEED1FB7D012B6F
:1023CC0005D1484BDB69474A23F08053D3617B68C6
:1023DC00DB69002B00F08180424B5B6803F00C033F
:1023EC00082B61D07B68DB69022B46D13F4B002266
:1023FC001A60FFF769FA386108E0FFF765FA0246E0
:10240C003B69D31A022B01D9032367E0354B1B68B8
:10241C0003F00073002BF0D17B681B6AB3F5803F8F
:10242C0008D1304B5B6823F400327B689B682D49E4
:10243C0013434B602B4B5B6823F474127B68196A53
:10244C007B685B6A0B43274913434B60274B012284
:10245C001A60FFF739FA386108E0FFF735FA0246DF
:10246C003B69D31A022B01D9032337E01D4B1B68A0
:10247C0003F00073002BF0D02FE01C4B00221A60ED
:10248C00FFF722FA386108E0FFF71EFA02463B69B3
:10249C00D31A022B01D9032320E0124B1B6803F043
:1024AC000073002BF0D118E07B68DB69012B01D1A4
:1024BC00012313E00B4B5B68FB60FB6803F4803279
:1024CC007B681B6A9A4206D1FB6803F470127B6826
:1024DC005B6A9A4201D0012300E0002318461837AA
:1024EC00BD4680BD001002400070004060004242BA
:1024FC0080B584B000AF786039607B68002B01D167
:10250C000123D0E06A4B1B6803F007033A689A4238
:10251C0010D9674B1B6823F0070265493B681343CE
:10252C000B60634B1B6803F007033A689A4201D0B7
:10253C000123B8E07B681B6803F00203002B20D05A
:10254C007B681B6803F00403002B05D0594B5B68B8
:10255C00584A43F4E06353607B681B6803F008033C
:10256C00002B05D0534B5B68524A43F460535360C5
:10257C00504B5B6823F0F0027B689B684D4913431A
:10258C004B607B681B6803F00103002B40D07B6819
:10259C005B68012B07D1474B1B6803F40033002BFE
:1025AC0015D101237FE07B685B68022B07D1414B7F
:1025BC001B6803F00073002B09D1012373E03D4B22
:1025CC001B6803F00203002B01D101236BE0394B94
:1025DC005B6823F003027B685B68364913434B60EE
:1025EC00FFF772F9F8600AE0FFF76EF90246FB6834
:1025FC00D31A41F28832934201D9032353E02D4B75
:10260C005B6803F00C027B685B689B009A42EBD121
:10261C00274B1B6803F007033A689A4210D2244BED
:10262C001B6823F0070222493B6813430B60204BC5
:10263C001B6803F007033A689A4201D0012332E089
:10264C007B681B6803F00403002B08D0194B5B68F4
:10265C0023F4E0627B68DB68164913434B607B68AC
:10266C001B6803F00803002B09D0124B5B6823F4A2
:10267C0060527B681B69DB000E4913434B6000F012
:10268C0021F802460B4B5B681B0903F00F030A4948
:10269C00CB5C22FA03F3094A1360094B1B681846FA
:1026AC00FFF7D0F8002318461037BD4680BD00BF99
:1026BC000020024000100240A84A00085C000020E4
:1026CC006C00002090B48AB000AF2A4B3C1D0FCB9D
:1026DC0084E80F0040F201233B800023FB610023C0
:1026EC00BB6100237B6200237B6100233B62224B96
:1026FC005B68FB61FB6903F00C03042B02D0082B15
:10270C0003D02DE01D4B3B622DE0FB699B0C03F0CD
:10271C000F0307F12802134413F8243C7B61FB6977
:10272C0003F48033002B13D0134B5B685B0C03F06A
:10273C00010307F12802134413F8283CBB617B69A1
:10274C000E4A02FB03F2BB69B2FBF3F37B6204E0BB
:10275C007B690B4A02FB03F37B627B6A3B6202E000
:10276C00064B3B6200BF3B6A18462837BD4690BCFF
:10277C00704700BF984A00080010024000127A000F
:10278C0000093D0080B400AF024B1B681846BD46E3
:10279C0080BC70475C00002080B500AFFFF7F2FFF3
:1027AC000246054B5B681B0A03F007030349CB5C2D
:1027BC0022FA03F3184680BD00100240B84A000804
:1027CC0080B500AFFFF7DEFF0246054B5B68DB0A06
:1027DC0003F007030349CB5C22FA03F3184680BDD0
:1027EC0000100240B84A000880B485B000AF786091
:1027FC000A4B1B680A4AA2FB03235B0A7A6802FB9A
:10280C0003F3FB6000BFFB685A1EFA60002BF9D182
:10281C0000BF00BF1437BD4680BC70475C00002071
:10282C00D34D621080B582B000AF78607B68002B0E
:10283C0001D1012341E07B6893F83D30DBB2002BE2
:10284C0006D17B68002283F83C207868FEF754FEA2
:10285C007B68022283F83D207B681A687B6804330E
:10286C001946104600F028FC7B68012283F84620AC
:10287C007B68012283F83E207B68012283F83F208D
:10288C007B68012283F840207B68012283F8412079
:10289C007B68012283F842207B68012283F8432065
:1028AC007B68012283F844207B68012283F8452051
:1028BC007B68012283F83D20002318460837BD466B
:1028CC0080BD000080B485B000AF78607B6893F861
:1028DC003D30DBB2012B01D001233AE07B680222B0
:1028EC0083F83D207B681B68DA687B681B6842F0C4
:1028FC000102DA607B681B68184A93420ED07B6831
:10290C001B68B3F1804F09D07B681B68144A934253
:10291C0004D07B681B68134A934211D17B681B68F7
:10292C009B6803F00703FB60FB68062B10D07B68E9
:10293C001B681A687B681B6842F001021A6007E08A
:10294C007B681B681A687B681B6842F001021A607E
:10295C00002318461437BD4680BC7047002C01403C
:10296C00000400400008004080B582B000AF7860E1
:10297C007B68002B01D1012341E07B6893F83D304B
:10298C00DBB2002B06D17B68002283F83C207868F0
:10299C0000F039F87B68022283F83D207B681A68C6
:1029AC007B6804331946104600F086FB7B680122D5
:1029BC0083F846207B68012283F83E207B68012245
:1029CC0083F83F207B68012283F840207B6801223A
:1029DC0083F841207B68012283F842207B68012226
:1029EC0083F843207B68012283F844207B68012212
:1029FC0083F845207B68012283F83D20002318468C
:102A0C000837BD4680BD80B483B000AF786000BF8E
:102A1C000C37BD4680BC704780B584B000AF786081
:102A2C0039603B68002B09D17B6893F83E30DBB2F0
:102A3C00012B14BF01230023DBB222E03B68042BE3
:102A4C0009D17B6893F83F30DBB2012B14BF012313
:102A5C000023DBB215E03B68082B09D17B6893F8A7
:102A6C004030DBB2012B14BF01230023DBB208E0A2
:102A7C007B6893F84130DBB2012B14BF0123002398
:102A8C00DBB2002B01D001235EE03B68002B04D1AC
:102A9C007B68022283F83E2013E03B68042B04D1B0
:102AAC007B68022283F83F200BE03B68082B04D1A3
:102ABC007B68022283F8402003E07B68022283F8C3
:102ACC0041207B681B6801223968184600F074FDB0
:102ADC007B681B681E4A934207D17B681B685A6C43
:102AEC007B681B6842F400425A647B681B68184A76
:102AFC0093420ED07B681B68B3F1804F09D07B6882
:102B0C001B68144A934204D07B681B68124A934298
:102B1C0011D17B681B689B6803F00703FB60FB68A3
:102B2C00062B10D07B681B681A687B681B6842F008
:102B3C0001021A6007E07B681B681A687B681B68D7
:102B4C0042F001021A60002318461037BD4680BDC2
:102B5C00002C0140000400400008004080B582B009
:102B6C0000AF78607B681B681B6903F00203022BC3
:102B7C0022D17B681B68DB6803F00203022B1BD19C
:102B8C007B681B686FF002021A617B6801221A775E
:102B9C007B681B689B6903F00303002B03D07868E8
:102BAC0000F06FFA05E0786800F062FA786800F0DF
:102BBC0071FA7B6800221A777B681B681B6903F02B
:102BCC000403042B22D17B681B68DB6803F004032D
:102BDC00042B1BD17B681B686FF004021A617B68A5
:102BEC0002221A777B681B689B6903F44073002BE5
:102BFC0003D0786800F045FA05E0786800F038FA00
:102C0C00786800F047FA7B6800221A777B681B68AB
:102C1C001B6903F00803082B22D17B681B68DB6857
:102C2C0003F00803082B1BD17B681B686FF00802AC
:102C3C001A617B6804221A777B681B68DB6903F0D6
:102C4C000303002B03D0786800F01BFA05E07868CA
:102C5C0000F00EFA786800F01DFA7B6800221A77F3
:102C6C007B681B681B6903F01003102B22D17B6857
:102C7C001B68DB6803F01003102B1BD17B681B68EF
:102C8C006FF010021A617B6808221A777B681B6848
:102C9C00DB6903F44073002B03D0786800F0F1F982
:102CAC0005E0786800F0E4F9786800F0F3F97B68E7
:102CBC0000221A777B681B681B6903F00103012B48
:102CCC000ED17B681B68DB6803F00103012B07D175
:102CDC007B681B686FF001021A617868FEF77EF85A
:102CEC007B681B681B6903F08003802B0ED17B680B
:102CFC001B68DB6803F08003802B07D17B681B68A3
:102D0C006FF080021A61786800F0E1FC7B681B6848
:102D1C001B6903F04003402B0ED17B681B68DB68FA
:102D2C0003F04003402B07D17B681B686FF0400217
:102D3C001A61786800F0B7F97B681B681B6903F0AF
:102D4C002003202B0ED17B681B68DB6803F020036B
:102D5C00202B07D17B681B686FF020021A61786802
:102D6C0000F0ACFC00BF0837BD4680BD80B584B018
:102D7C0000AFF860B9607A60FB6893F83C30012BC7
:102D8C0001D10223ACE0FB68012283F83C207B6874
:102D9C000C2B00F29F8001A252F823F0DD2D0008CD
:102DAC00E12E0008E12E0008E12E00081D2E00087F
:102DBC00E12E0008E12E0008E12E00085F2E00082D
:102DCC00E12E0008E12E0008E12E00089F2E0008DD
:102DDC00FB681B68B968184600F0D0F9FB681B68E3
:102DEC009A69FB681B6842F008029A61FB681B68D1
:102DFC009A69FB681B6822F004029A61FB681B68E5
:102E0C009969BB681A69FB681B680A439A6162E09E
:102E1C00FB681B68B968184600F016FAFB681B685B
:102E2C009A69FB681B6842F400629A61FB681B6834
:102E3C009A69FB681B6822F480629A61FB681B68C4
:102E4C009969BB681B691A02FB681B680A439A6183
:102E5C0041E0FB681B68B968184600F05FFAFB6834
:102E6C001B68DA69FB681B6842F00802DA61FB68D0
:102E7C001B68DA69FB681B6822F00402DA61FB68E4
:102E8C001B68D969BB681A69FB681B680A43DA615D
:102E9C0021E0FB681B68B968184600F0A9FAFB68CA
:102EAC001B68DA69FB681B6842F40062DA61FB6834
:102EBC001B68DA69FB681B6822F48062DA61FB68C4
:102ECC001B68D969BB681B691A02FB681B680A433B
:102EDC00DA6100E000BFFB68002283F83C2000238D
:102EEC0018461037BD4680BD80B584B000AF786001
:102EFC0039607B6893F83C30012B01D10223B3E09D
:102F0C007B68012283F83C207B68022283F83D20F9
:102F1C007B681B689B68FB60FB6823F07703FB6096
:102F2C00FB6823F47F43FB607B681B68FA689A603C
:102F3C003B681B68B3F5005F3ED0B3F5005F00F251
:102F4C008780B3F5805F00F08580B3F5805F7FD814
:102F5C00702B1AD0702B7BD8602B50D0602B77D86D
:102F6C00502B3CD0502B73D8402B58D0402B6FD8C3
:102F7C00302B64D0302B6BD8202B60D0202B67D813
:102F8C00002B5CD0102B5AD062E07B6818683B6831
:102F9C0099683B685A683B68DB6800F0EEFA7B681E
:102FAC001B689B68FB60FB6843F07703FB607B68E6
:102FBC001B68FA689A604EE07B6818683B689968F1
:102FCC003B685A683B68DB6800F0D7FA7B681B6883
:102FDC009A687B681B6842F480429A603BE07B688D
:102FEC0018683B6859683B68DB681A4600F04EFA73
:102FFC007B681B685021184600F0A5FA2BE07B6813
:10300C0018683B6859683B68DB681A4600F06CFA34
:10301C007B681B686021184600F095FA1BE07B6802
:10302C0018683B6859683B68DB681A4600F02EFA52
:10303C007B681B684021184600F085FA0BE07B6822
:10304C001A683B681B681946104600F07CFA02E0CF
:10305C0000BF00E000BF7B68012283F83D207B6845
:10306C00002283F83C20002318461037BD4680BD53
:10307C0080B483B000AF786000BF0C37BD4680BC15
:10308C00704780B483B000AF786000BF0C37BD468A
:10309C0080BC704780B483B000AF786000BF0C3741
:1030AC00BD4680BC704780B483B000AF786000BF71
:1030BC000C37BD4680BC704780B485B000AF7860DB
:1030CC0039607B681B68FB607B68294A93420BD094
:1030DC007B68B3F1804F07D07B68264A934203D0BC
:1030EC007B68254A934208D1FB6823F07003FB6090
:1030FC003B685B68FA681343FB607B681C4A93422D
:10310C000BD07B68B3F1804F07D07B68194A934290
:10311C0003D07B68184A934208D1FB6823F44073B0
:10312C00FB603B68DB68FA681343FB60FB6823F0C9
:10313C0080023B685B691343FB607B68FA681A602A
:10314C003B689A687B68DA623B681A687B689A62AB
:10315C007B68074A934203D13B681A697B681A6300
:10316C007B6801225A6100BF1437BD4680BC704792
:10317C00002C0140000400400008004080B487B0DF
:10318C0000AF786039607B681B6A23F001027B68B2
:10319C001A627B681B6A7B617B685B683B617B683E
:1031AC009B69FB60FB6823F07003FB60FB6823F0FA
:1031BC000303FB603B681B68FA681343FB607B6985
:1031CC0023F002037B613B689B687A6913437B6144
:1031DC007B681C4A93420CD17B6923F008037B610A
:1031EC003B68DB687A6913437B617B6923F00403DA
:1031FC007B617B68134A934211D13B6923F4807342
:10320C003B613B6923F400733B613B685B693A6942
:10321C0013433B613B689B693A6913433B617B6891
:10322C003A695A607B68FA689A613B685A687B68AD
:10323C005A637B687A691A6200BF1C37BD4680BC32
:10324C00704700BF002C014080B487B000AF78609D
:10325C0039607B681B6A23F010027B681A627B68FA
:10326C001B6A7B617B685B683B617B689B69FB606D
:10327C00FB6823F4E043FB60FB6823F44073FB60C2
:10328C003B681B681B02FA681343FB607B6923F0E5
:10329C0020037B613B689B681B017A6913437B614C
:1032AC007B681D4A93420DD17B6923F080037B61BF
:1032BC003B68DB681B017A6913437B617B6923F0F4
:1032CC0040037B617B68144A934213D13B6923F41E
:1032DC0080633B613B6923F400633B613B685B6942
:1032EC009B003A6913433B613B689B699B003A69BD
:1032FC0013433B617B683A695A607B68FA689A6150
:10330C003B685A687B689A637B687A691A6200BF6B
:10331C001C37BD4680BC7047002C014080B487B080
:10332C0000AF786039607B681B6A23F480727B681D
:10333C001A627B681B6A7B617B685B683B617B689C
:10334C00DB69FB60FB6823F07003FB60FB6823F018
:10335C000303FB603B681B68FA681343FB607B69E3
:10336C0023F400737B613B689B681B027A691343EF
:10337C007B617B681D4A93420DD17B6923F400630A
:10338C007B613B68DB681B027A6913437B617B6959
:10339C0023F480637B617B68144A934213D13B69AD
:1033AC0023F480533B613B6923F400533B613B683E
:1033BC005B691B013A6913433B613B689B691B01C9
:1033CC003A6913433B617B683A695A607B68FA68D7
:1033DC00DA613B685A687B68DA637B687A691A62DF
:1033EC0000BF1C37BD4680BC704700BF002C01409D
:1033FC0080B487B000AF786039607B681B6A23F4B7
:10340C0080527B681A627B681B6A3B617B685B68D5
:10341C007B617B68DB69FB60FB6823F4E043FB604A
:10342C00FB6823F44073FB603B681B681B02FA6863
:10343C001343FB603B6923F400533B613B689B687F
:10344C001B033A6913433B617B680F4A934209D1D2
:10345C007B6923F480437B613B685B699B017A69E0
:10346C0013437B617B687A695A607B68FA68DA611E
:10347C003B685A687B681A647B683A691A6200BFB9
:10348C001C37BD4680BC7047002C014080B487B00F
:10349C0000AFF860B9607A60FB681B6A7B61FB68FF
:1034AC001B6A23F00102FB681A62FB689B693B6193
:1034BC003B6923F0F0033B617B681B013A691343C2
:1034CC003B617B6923F00A037B617A69BB68134318
:1034DC007B61FB683A699A61FB687A691A6200BF82
:1034EC001C37BD4680BC704780B487B000AFF86015
:1034FC00B9607A60FB681B6A23F01002FB681A62E1
:10350C00FB689B697B61FB681B6A3B617B6923F4ED
:10351C0070437B617B681B037A6913437B613B6956
:10352C0023F0A0033B61BB681B013A6913433B6169
:10353C00FB687A699A61FB683A691A6200BF1C37AA
:10354C00BD4680BC704780B485B000AF78603960F0
:10355C007B689B68FB60FB6823F07003FB603A6838
:10356C00FB68134343F00703FB607B68FA689A60BF
:10357C0000BF1437BD4680BC704780B487B000AF25
:10358C00F860B9607A603B60FB689B687B617B6923
:10359C0023F47F437B613B681A027B681A43BB6848
:1035AC0013437A6913437B61FB687A699A6000BFA5
:1035BC001C37BD4680BC704780B487B000AFF86044
:1035CC00B9607A60BB6803F01F03012202FA03F3AF
:1035DC007B61FB681A6A7B69DB431A40FB681A62E1
:1035EC00FB681A6ABB6803F01F03796801FA03F3DE
:1035FC001A43FB681A6200BF1C37BD4680BC70477B
:10360C0080B485B000AF786039607B6893F83C304B
:10361C00012B01D1022346E07B68012283F83C2078
:10362C007B68022283F83D207B681B685B68FB602B
:10363C007B681B689B68BB60FB6823F07003FB60B6
:10364C003B681B68FA681343FB607B681B68FA686D
:10365C005A607B681B68164A93420ED07B681B68C5
:10366C00B3F1804F09D07B681B68124A934204D097
:10367C007B681B68104A93420CD1BB6823F0800313
:10368C00BB603B685B68BA681343BB607B681B68B4
:10369C00BA689A607B68012283F83D207B6800221F
:1036AC0083F83C20002318461437BD4680BC704775
:1036BC00002C0140000400400008004080B483B09E
:1036CC0000AF786000BF0C37BD4680BC704780B43B
:1036DC0083B000AF786000BF0C37BD4680BC70472C
:1036EC0080B582B000AF78607B68002B01D10123DC
:1036FC003FE07B6893F83D30DBB2002B06D17B6852
:10370C00002283F83C207868FDF768FF7B68242250
:10371C0083F83D207B681B68DA687B681B6822F4A1
:10372C000052DA60786800F025FC7B681B681A6927
:10373C007B681B6822F490421A617B681B685A698B
:10374C007B681B6822F02A025A617B681B68DA6866
:10375C007B681B6842F40052DA607B6800221A64B2
:10376C007B68202283F83D207B68202283F83E2052
:10377C00002318460837BD4680BD80B58AB002AF1D
:10378C00F860B9603B601346FB8000237B61FB68EB
:10379C0093F83D30DBB2202B7CD1BB68002B02D0E0
:1037AC00FB88002B01D1012375E0FB6893F83C30BA
:1037BC00012B01D102236EE0FB68012283F83C202F
:1037CC00FB6800221A64FB68212283F83D20FEF777
:1037DC007BF87861FB68FA889A84FB68FA88DA844B
:1037EC00FB689B68B3F5805F08D1FB681B69002BF5
:1037FC0004D10023FB61BB68BB6103E0BB68FB61C8
:10380C000023BB61FB68002283F83C202AE03B6864
:10381C0000937B6900228021F86800F011FA0346BE
:10382C00002B01D0032336E0FB69002B0BD1BB69C5
:10383C001B881A46FB681B68C2F308025A60BB69F6
:10384C000233BB6107E0FB691A78FB681B685A609E
:10385C00FB690133FB61FB68DB8C9BB2013B9AB2C9
:10386C00FB68DA84FB68DB8C9BB2002BCFD13B6806
:10387C0000937B6900224021F86800F0E1F90346CF
:10388C00002B01D0032306E0FB68202283F83D20A7
:10389C00002300E0022318462037BD4680BD0000FF
:1038AC0080B58AB000AF78607B681B681B687B6250
:1038BC007B681B68DB683B627B681B685B69FB6130
:1038CC000023BB6100237B617B6A03F00F03BB61A8
:1038DC00BB69002B0DD17B6A03F02003002B08D0B1
:1038EC003B6A03F02003002B03D0786800F099FAB0
:1038FC007BE1BB69002B00F0B180FB6903F0010395
:10390C00002B05D13B6A03F49073002B00F0A680CA
:10391C007B6A03F00103002B0AD03B6A03F480732B
:10392C00002B05D07B681B6C43F001027B681A648A
:10393C007B6A03F00403002B0AD0FB6903F001033C
:10394C00002B05D07B681B6C43F002027B681A6469
:10395C007B6A03F00203002B0AD0FB6903F001031E
:10396C00002B05D07B681B6C43F004027B681A6447
:10397C007B6A03F00803002B0FD03B6A03F0200393
:10398C00002B04D1FB6903F00103002B05D07B68ED
:10399C001B6C43F008027B681A647B681B6C002B61
:1039AC0000F01E817B6A03F02003002B07D03B6ADA
:1039BC0003F02003002B02D0786800F032FA7B6809
:1039CC001B685B6903F04003002B14BF0123002329
:1039DC00DBB27B617B681B6C03F00803002B02D10C
:1039EC007B69002B31D0786800F074F97B681B6818
:1039FC005B6903F04003002B23D07B681B685A697A
:103A0C007B681B6822F040025A617B689B6B002B21
:103A1C0013D07B689B6B764A5A637B689B6B18460A
:103A2C00FEF7A4F80346002B16D07B689B6B5B6BF0
:103A3C007A68926B104698470EE0786800F0ECF8C4
:103A4C000AE0786800F0E8F806E0786800F0E4F83E
:103A5C007B6800221A64C3E000BFC1E07B681B6B6B
:103A6C00012B40F0A1807B6A03F01003002B00F0C7
:103A7C009B803B6A03F01003002B00F09580002321
:103A8C00FB607B681B681B68FB607B681B685B6862
:103A9C00FB60FB687B681B685B6903F04003002BD1
:103AAC004ED07B689B6B1B685B683B823B8A002B10
:103ABC0000F098807B689B8D3A8A9A4280F09280C5
:103ACC007B683A8ADA857B689B6B9B69202B2BD0B1
:103ADC007B681B68DA687B681B6822F48072DA608A
:103AEC007B681B685A697B681B6822F001025A616B
:103AFC007B681B685A697B681B6822F040025A611C
:103B0C007B68202283F83E207B6800221A637B6846
:103B1C001B68DA687B681B6822F01002DA607B682D
:103B2C009B6B1846FDF7E7FF7B689A8D7B68DB8DF6
:103B3C009BB2D31A9BB21946786800F076F851E024
:103B4C007B689A8D7B68DB8D9BB2D31A7B827B68FA
:103B5C00DB8D9BB2002B47D07B8A002B44D07B683B
:103B6C001B68DA687B681B6822F49072DA607B68E9
:103B7C001B685A697B681B6822F001025A617B68DA
:103B8C00202283F83E207B6800221A637B681B6826
:103B9C00DA687B681B6822F01002DA607B8A1946AF
:103BAC00786800F042F81FE07B6A03F08003002B7A
:103BBC0008D03B6A03F08003002B03D0786800F038
:103BCC00C9F812E07B6A03F04003002B0DD03B6A6E
:103BDC0003F04003002B08D0786800F00AF904E0E9
:103BEC0000BF02E000BF00E000BF2837BD4680BD2B
:103BFC00393D000880B483B000AF786000BF0C374B
:103C0C00BD4680BC704780B483B000AF786000BF05
:103C1C000C37BD4680BC704780B483B000AF786071
:103C2C0000BF0C37BD4680BC704780B483B000AF7A
:103C3C0078600B467B8000BF0C37BD4680BC70475C
:103C4C0080B584B000AFF860B9603B601346FB717F
:103C5C002CE0BB69B3F1FF3F28D0BB69002B07D028
:103C6C00FDF732FE02463B68D31ABA699A421DD25E
:103C7C00FB681B68DA68FB681B6822F4D072DA6098
:103C8C00FB681B685A69FB681B6822F001025A61C9
:103C9C00FB68202283F83D20FB68202283F83E201D
:103CAC00FB68002283F83C2003230FE0FB681B68B1
:103CBC001A68BB681340BA689A420CBF01230023F0
:103CCC00DBB21A46FB799A42C3D000231846103750
:103CDC00BD4680BD80B483B000AF78607B681B6844
:103CEC00DA687B681B6822F49072DA607B681B6868
:103CFC005A697B681B6822F001025A617B681B6B56
:103D0C00012B07D17B681B68DA687B681B6822F083
:103D1C001002DA607B68202283F83E207B68002248
:103D2C001A6300BF0C37BD4680BC704780B584B0A9
:103D3C0000AF78607B685B6AFB60FB680022DA8509
:103D4C00FB680022DA84F868FFF766FF00BF1037C3
:103D5C00BD4680BD80B485B000AF78607B6893F8B9
:103D6C003D30DBB2212B3ED17B689B68B3F5805F85
:103D7C0014D17B681B69002B10D17B681B6AFB601C
:103D8C00FB681B881A467B681B68C2F308025A60E2
:103D9C007B681B6A9A1C7B681A6208E07B681B6A4A
:103DAC00591C7A6811621A787B681B685A607B68A8
:103DBC00DB8C9BB2013B9BB27A681946D184002BF9
:103DCC000FD17B681B68DA687B681B6822F0800265
:103DDC00DA607B681B68DA687B681B6842F040021B
:103DEC00DA60002300E0022318461437BD4680BC7D
:103DFC00704780B582B000AF78607B681B68DA686A
:103E0C007B681B6822F04002DA607B68202283F812
:103E1C003D207868FFF7EEFE002318460837BD46B4
:103E2C0080BD80B586B000AF78607B6893F83E307B
:103E3C00DBB2222B40F099807B689B68B3F5805FE6
:103E4C0017D17B681B69002B13D100237B617B6826
:103E5C009B6A3B617B681B685B689BB2C3F308037E
:103E6C009AB23B691A807B689B6A9A1C7B689A623F
:103E7C0026E07B689B6A7B6100233B617B689B68C7
:103E8C00B3F5805F07D07B689B68002B0AD17B68F9
:103E9C001B69002B06D17B681B685B68DAB27B69F7
:103EAC001A7008E07B681B685B68DBB203F07F0369
:103EBC00DAB27B691A707B689B6A5A1C7B689A62BF
:103ECC007B68DB8D9BB2013B9BB27A681946D1852E
:103EDC00002B48D17B681B68DA687B681B6822F072
:103EEC002002DA607B681B68DA687B681B6822F446
:103EFC008072DA607B681B685A697B681B6822F0E9
:103F0C0001025A617B68202283F83E207B681B6B80
:103F1C00012B23D17B6800221A637B681B68DA684B
:103F2C007B681B6822F01002DA607B681B681B68D8
:103F3C0003F01003102B0AD10023FB607B681B6875
:103F4C001B68FB607B681B685B68FB60FB687B68BD
:103F5C009B8D19467868FFF768FE02E07868FFF7DA
:103F6C0052FE002302E0002300E00223184618371B
:103F7C00BD4680BD80B584B000AF78607B681B689F
:103F8C001B6923F440517B68DA687B681B680A4321
:103F9C001A617B689A687B681B691A437B685B694A
:103FAC001343BB607B681B68DB6823F4B05323F0BE
:103FBC000C037A681268B9680B43D3607B681B6882
:103FCC005B6923F440717B689A697B681B680A43C0
:103FDC005A617B681B682C4A934203D1FEF7F0FBB5
:103FEC00F86002E0FEF7D8FBF860FA6813469B0015
:103FFC0013449A001A447B685B689B00B2FBF3F392
:10400C00224AA2FB03235B091901FA6813469B00A1
:10401C0013449A001A447B685B689B00B2FBF3F272
:10402C001A4BA3FB02035B09642000FB03F3D31AB6
:10403C001B013233154AA2FB03235B0903F0F00387
:10404C001944FA6813469B0013449A001A447B687F
:10405C005B689B00B2FBF3F20C4BA3FB02035B0906
:10406C00642000FB03F3D31A1B013233074AA2FB73
:10407C0003235B0903F00F027B681B680A449A60F8
:10408C0000BF1037BD4680BD003801401F85EB5185
:10409C00014B1868704700BF7400002070B50026F3
:1040AC000C4D0D4C641BA410A64209D100F05CFC15
:1040BC0000260A4D0A4C641BA410A64205D170BD03
:1040CC0055F8043B98470136EEE755F8043B984702
:1040DC000136F2E7F44A0008F44A0008F44A0008F2
:1040EC00F84A000803460244934200D1704703F893
:1040FC00011BF9E70EB46FF0004100B59CB01DAB8D
:10410C0002900690079104910848094953F8042B32
:10411C000591006802A9019300F068F80022029B47
:10412C001A701CB05DF804EB03B0704774000020EB
:10413C000802FFFF2DE9F0478E6882469E420C462E
:10414C0090461F4638D88A8912F4906F32D0256871
:10415C0009690133A5EB010965694B4405EB45057C
:10416C0005EBD5756D109D4238BF1D46530531D5F5
:10417C00294600F053FB064650B90C234FF0FF3094
:10418C00CAF80030A38943F04003A381BDE8F0874F
:10419C004A46216900F0CEFAA38923F4906343F0D8
:1041AC008003A38126614E4426603E466561A5EBE3
:1041BC000905A560BE4200D93E46324641462068FC
:1041CC0000F0C6FAA36822689B1B32440020A3604F
:1041DC002260DBE72A4600F07BFB06460028E1D193
:1041EC005046216900F0CEFAC7E700002DE9F04FE8
:1041FC0098468B8907461B060D4614469DB00ED576
:10420C000B6963B9402100F009FB2860286120B9D3
:10421C000C233B604FF0FF30D1E040236B61002357
:10422C00099320238DF8293030234FF00109CDF864
:10423C000C80DFF8A4818DF82A3023469A4613F8B7
:10424C00012B0AB1252AF9D1BAEB040B0BD05B4632
:10425C00224629463846FFF76DFF013000F0AA8050
:10426C00099A5A4409929AF80030002B00F0A28067
:10427C0000234FF0FF32CDE905230AF1010A049324
:10428C0007938DF853301A935446052214F8011BEA
:10429C00514800F041FA049AD8B9D00644BF202303
:1042AC008DF85330110744BF2B238DF853309AF8F7
:1042BC0000302A2B15D0544600204FF00A0C079AD8
:1042CC00214611F8013B303B092B4ED9B0B1079276
:1042DC0014E0A0EB080309FA03F31343A24604937A
:1042EC00D2E7039B191D1B680391002BBBBF5B42DC
:1042FC0042F0020207930793B8BF049223782E2B47
:10430C000CD163782A2B35D1039B02341A1D1B6800
:10431C000392002BB8BF4FF0FF330593DFF8C8A012
:10432C0003225046217800F0F7F940B14023A0EB6E
:10433C000A0003FA00F0049B01340343049314F8BD
:10434C00011B062225488DF8281000F0E5F90028FD
:10435C0038D0234B1BBB039B073323F007030833D5
:10436C000393099B3344099367E70C4601200CFB2C
:10437C000232A5E700234FF00A0C194601340593CD
:10438C00204610F8012B303A092A03D9002BC5D04E
:10439C000591C3E7044601230CFB0121F0E703ABB5
:1043AC0000932A4638460F4B04A9AFF30080421CF9
:1043BC000646D6D1AB895B063FF52CAF09981DB0EC
:1043CC00BDE8F08F03AB00932A463846054B04A991
:1043DC0000F07CF8EBE700BFC04A0008CA4A0008AE
:1043EC000000000041410008C64A00082DE9F047D2
:1043FC00164699468A680B6907469342B8BF13461E
:10440C00336091F843200C46DDF820800AB101336B
:10441C0033602368990642BF3368023333602568E2
:10442C0015F0060506D104F1190AE36832689B1AE7
:10443C00AB4228DC94F84320131E226818BF0123DA
:10444C0092062DD44946384604F14302C047013048
:10445C0020D02368E56803F00603042B18BF002561
:10446C0032684FF00006A36808BFAD1A226908BF76
:10447C0025EAE5759342C4BF9B1AED181A34B54270
:10448C001AD1002008E00123524649463846C0475D
:10449C00013003D14FF0FF30BDE8F0870135C4E7A0
:1044AC003020E11881F843005A1C94F8451022443E
:1044BC00023382F84310C5E70123224649463846A9
:1044CC00C0470130E6D00136D9E700002DE9FF479F
:1044DC000C46277E9146782F80469A460C9904F11B
:1044EC00430207D8622F0AD8002F00F0D980582F2A
:1044FC0000F0A48004F1420684F842703AE0A7F17F
:10450C006303152BF6D801A050F823F07145000871
:10451C0085450008014500080145000801450008D3
:10452C0001450008854500080145000801450008C3
:10453C00014500080145000893460008B5450008F0
:10454C00754600080145000801450008B5460008FD
:10455C0001450008B5450008014500080145000863
:10456C007D4600080B6804F142061A1D1B680A60A0
:10457C0084F842300123A4E0256808682E0600F177
:10458C0004030AD505680B60002D03DA2D236D4258
:10459C0084F843300A235E4819E015F0400F056893
:1045AC000B6018BF2DB2EFE70B682568181D08606B
:1045BC00280601D51D6802E06906FBD51D886F2F02
:1045CC000CBF08230A235248002184F84310666864
:1045DC00002EA8BF2168A660A4BF21F004012160B1
:1045EC000DB9002E4DD01646B5FBF3F103FB115758
:1045FC00C75D06F8017D2F46BB420D46F4D9082B4A
:10460C000BD12368DF0708D5236961689942DEBFA7
:10461C00302306F8013C06F1FF36921B22614B4613
:10462C0021464046CDF800A003AAFFF7DFFE01307B
:10463C004CD14FF0FF3004B0BDE8F087344884F81B
:10464C0045700E68236856F8045B1F060E6014D57F
:10465C00D90744BF43F0200323601DB9236823F01E
:10466C00200323601023AFE7236843F0200323606B
:10467C007823284884F84530E3E75E0648BFADB29E
:10468C00E6E71646BBE70B6826681D1D60690D60E2
:10469C0035061B6801D5186002E07106FBD5188041
:1046AC00002316462361BAE70B681A1D0A601E68C0
:1046BC0000213046626800F02FF808B1801B606062
:1046CC0063682361002384F84330A8E732464946E7
:1046DC0040462369D0470130ABD023689B0713D4E5
:1046EC00E068039B9842B8BF1846A4E70123324602
:1046FC0049464046D04701309BD00135E3680399C9
:10470C005B1AAB42F2DCEBE7002504F11906F5E786
:10471C00D14A0008E24A0008034610B5C9B2024467
:10472C009342184601D1002003E0047801338C42F7
:10473C00F6D110BD0A44914200F1FF3300D170470D
:10474C0010B511F8014B914203F8014FF9D110BD8E
:10475C00884210B501EB020402D98442234607D8E3
:10476C00431EA14208D011F8012B03F8012FF8E7E2
:10477C00014602448A4200D110BD13F8014D02F8E3
:10478C00014DF7E738B50546002943D051F8043CF4
:10479C000C1F002BB8BFE41800F0D0F81E4A1368A9
:1047AC00104633B9636014602846BDE8384000F009
:1047BC00CBB8A3420AD921686218934201BF1A6888
:1047CC005B685218226063600460EDE71A465B6810
:1047DC000BB1A342FAD911685018A0420BD1206832
:1047EC000144501883421160DED118685B680144A3
:1047FC0011605360D8E702D90C232B60D4E72068F2
:10480C0021188B4201BF19685B680918216063602D
:10481C005460C9E738BD00BF4C010020F8B5CD1C71
:10482C0025F0030508350C2D38BF0C25002D064648
:10483C0001DBA94203D90C2333600020F8BD00F042
:10484C007DF821490A6814469CB9204F3B6823B96E
:10485C002146304600F062F838602946304600F0B8
:10486C005DF8431C23D10C233046336000F06CF808
:10487C00E3E723685B1B17D40B2B03D923601C4481
:10488C00256004E06368A2420CBF0B6053603046A5
:10489C0000F05AF804F10B00231D20F00700C21A97
:1048AC00CCD01B1AA350C9E722466468CCE7C41CC1
:1048BC0024F00304A042E3D0211A304600F02EF875
:1048CC000130DDD1CFE700BF4C01002050010020AA
:1048DC00F8B5074614460E4621B91146BDE8F84016
:1048EC00FFF79CBF22B9FFF74DFF25462846F8BDC0
:1048FC0000F030F8A0420FD221463846FFF78EFF69
:10490C0005460028F2D031462246FFF713FF314608
:10491C003846FFF737FFE9E73546E7E738B50023B8
:10492C00054D044608462B60FCF7F0FE431C02D1F3
:10493C002B6803B1236038BD78020020014800F0D9
:10494C0011B800BF80020020014800F00CB800BF75
:10495C008002002051F8043C181F002BBCBF0B58E0
:10496C00C018704770477047F8B500BFF8BC08BC5A
:10497C009E467047F8B500BFF8BC08BC9E46704711
:10498C0021524544313A202564202009475245459F
:10499C004E323A202564230D0A0000002152454472
:1049AC00313A20256420200959454C4C4F57323A56
:1049BC002564230D0A00000021524544323A20257B
:1049CC0064202009475245454E313A2564230D0A8F
:1049DC000000000021524544323A20256420200971
:1049EC0059454C4C4F57313A2564230D0A000000B1
:1049FC002150313A475245454E090950323A5245F9
:104A0C0044230D0A000000002150313A59454C4C0A
:104A1C004F57090950323A524544230D0A00000001
:104A2C002150313A524544090950323A47524545D2
:104A3C004E230D0A000000002150313A5245440922
:104A4C000950323A59454C4C4F57230D0A0000007F
:104A5C002154494D45205245443A202564230D0AE2
:104A6C00000000002154494D452059454C4C4F57EE
:104A7C003A202564230D0A002154494D4520475204
:104A8C0045454E3A202564230D0A00000203040517
:104A9C00060708090A0B0C0D0E0F10100000000081
:104AAC0000000000010203040607080900000000D2
:104ABC0001020304232D302B2000686C4C0065662A
:104ACC006745464700303132333435363738394153
:104ADC004243444546003031323334353637383969
:084AEC0061626364656600006D
:044AF4003101000884
:044AF8000D010008A4
:104AFC00FF00000008000000080000001300000088
:104B0C000F0000001B00000001000000010000006D
:104B1C000100000001000000010000000100000085
:104B2C000100000001000000010000000100000075
:104B3C000100000001000000010000000100000065
:104B4C0001000000010000000A0000000024F40035
:104B5C0014000000050000000F0000001000000011
:104B6C0001000000780000200000000000000000A0
:104B7C000000000000000000000000000000000029
:104B8C000000000000000000000000000000000019
:104B9C000000000000000000000000000000000009
:104BAC0000000000000000000000000000000000F9
:104BBC0000000000000000000000000000000000E9
:084BCC000000000000000000E1
:04000005080017D9FF
:00000001FF
